:020000040000fa
:080000000002040000000000f2
:020000040000fa
:10000800d6020000d6020000d6020000d602000088
:10001800d6020000d6020000d6020000d602000078
:10002800d6020000d6020000d6020000d602000068
:10003800d6020000d6020000d6020000d602000058
:10004800d6020000d6020000cc090000e607000036
:100058008e080000d6020000d6020000d60200007a
:10006800d6020000d6020000d6020000d602000028
:10007800d6020000d6020000d6020000d602000018
:10008800d6020000d6020000d6020000d602000008
:10009800d6020000d602000010080000de080000aa
:1000a800d6020000d6020000d6020000d6020000e8
:1000b800d6020000d6020000d6020000d6020000d8
:1000c800d6020000d6020000d6020000d6020000c8
:1000d800d6020000d6020000d6020000d6020000b8
:1000e800d6020000d6020000d6020000d6020000a8
:1000f800d6020000d6020000d6020000d602000098
:10010800d6020000d6020000d6020000d602000087
:10011800d6020000d6020000d6020000d602000077
:10012800d6020000d6020000d6020000d602000067
:10013800d6020000d6020000d6020000d602000057
:10014800d6020000d6020000d6020000d602000047
:10015800d6020000d6020000d6020000d602000037
:10016800d6020000d60200003a0800002e0900005e
:10017800d6020000d6020000d6020000d602000017
:10018800640800007e090000d6020000d6020000c4
:10019800d6020000d6020000d6020000d6020000f7
:1001a800d6020000d6020000d6020000d6020000e7
:1001b800d6020000d6020000d6020000d6020000d7
:1001c800d6020000d6020000d6020000d6020000c7
:1001d800d6020000d6020000d6020000d6020000b7
:1001e800d6020000d6020000d6020000d6020000a7
:0801f800d6020000d60200004f
:020000040000fa
:10020800d6020000d6020000d6020000d602000086
:10021800d6020000d6020000d6020000d602000076
:10022800d6020000d6020000d6020000d602000066
:10023800d6020000d6020000d6020000d602000056
:10024800d6020000d6020000cc090000e607000034
:100258008e080000d6020000d6020000d602000078
:10026800d6020000d6020000d6020000d602000026
:10027800d6020000d6020000d6020000d602000016
:10028800d6020000d6020000d6020000d602000006
:10029800d6020000d602000010080000de080000a8
:1002a800d6020000d6020000d6020000d6020000e6
:1002b800d6020000d6020000d6020000d6020000d6
:1002c800d6020000d6020000d6020000d6020000c6
:1002d800d6020000d6020000d6020000d6020000b6
:1002e800d6020000d6020000d6020000d6020000a6
:1002f800d6020000d6020000d6020000d602000096
:10030800d6020000d6020000d6020000d602000085
:10031800d6020000d6020000d6020000d602000075
:10032800d6020000d6020000d6020000d602000065
:10033800d6020000d6020000d6020000d602000055
:10034800d6020000d6020000d6020000d602000045
:10035800d6020000d6020000d6020000d602000035
:10036800d6020000d60200003a0800002e0900005c
:10037800d6020000d6020000d6020000d602000015
:10038800640800007e090000d6020000d6020000c2
:10039800d6020000d6020000d6020000d6020000f5
:1003a800d6020000d6020000d6020000d6020000e5
:1003b800d6020000d6020000d6020000d6020000d5
:1003c800d6020000d6020000d6020000d6020000c5
:1003d800d6020000d6020000d6020000d6020000b5
:1003e800d6020000d6020000d6020000d6020000a5
:0803f800d6020000d60200004d
:020000040000fa
:100400006f8221000e7f22000e0188000000000094
:10041000000020000000e000020032000001200087
:10042000200288000c000700a0bb20000100200073
:100430000f000700000020000000e0000200320072
:100440000000020000000000520602000000000050
:100450000040da000000fe00200020000000e00064
:100460000200320010002000900188000000060009
:10047000a1028800800078000000eb001a0037001d
:10048000e280400054a0b4009101ba00e280400034
:1004900054a0b4009102ba00e280400054a0b4001d
:1004a0000002eb00472bde00f507b200a601880032
:1004b000602ce10008003a000049eb000201e8006e
:1004c000020039003420ec0002f0a0008301e900b2
:1004d000f9ff3e00040037006128e100010032000e
:1004e0000082eb00040007001101ba000200e000e6
:1004f000e3ff3a000000060004d0a300e20f490029
:100500001c003900810278003549ba000201e80078
:10051000020039003420ec0002f0a0008301e90061
:100520000f0032002549ba000201e800020039003c
:100530003420ec0002f0a0008301e9000800320042
:100540000400e0000600320015c9ba000201e8000c
:10055000020039003420ec0002f0a0008301e90021
:100560008180e80054a0b4000300e000e2ff3a00fc
:10057000000006009102ba00055978008301e900e5
:10058000f7ff3200c82ade00055978008301e90030
:10059000f3ff32000400e000f1ff320011d9ba008d
:1005a000eeff370000000000000000000040da000d
:0405b0000000fe0049
:020000040000fa
:1005b4000400fa00204798002e429000e74f5200b2
:1005c40029003e002e4290000482fb008402420077
:1005d4000480210004824200140f78002e4290000f
:1005e4000482fb0084024200048121000482420050
:1005f400140278009e0f520002003a000002eb0041
:100604001a0037002e4290000482fb00840242004c
:100614000481210004824200140278009e0f5200db
:10062400080036002e4290000482fb00840242003f
:100634000481210004824200140278001e02520048
:100644000a0037002e4290000482fb00840242001c
:100654000481210004824200140278001e02520028
:100664000420b000010037000000370004007800c7
:100674000080fa00000006000400fa0020479800f9
:100684000042eb00044f78002e429000e74f5200e6
:1006940036003e002e4290000482fb008402420099
:1006a4000480210004824200940278002e429000cb
:1006b4000482fb000403420004812100040243007d
:1006c40014027800848f5200280032002e429000d9
:1006d4008482fb002e4290000482fb00040342004b
:1006e400048021000402430014027800c92add00ba
:1006f400848242000480200004824200144f780067
:100704002e4290000482fb00040342000580210075
:1007140085024300950278008502e8000403420044
:100724000480210004024300050a78002e42900050
:100734000482fb00840242000480210004824200ff
:100744009402780004202000848f520007003a00ad
:100754002e4290000482fb008402420004802100a7
:10076400048242008002eb00050a78001e427800f1
:10077400044078000080fa00000006000600fa0039
:1007840040479800514798000042eb00044f78001e
:100794004e429000e74f52002e003e004e42900021
:1007a4000482fb008402420004812100048242008e
:1007b400140278000402e800140798009e029000d6
:1007c40004202000848f520002003a000002eb0053
:1007d400140798004e4290000482fb0084024200f9
:1007e4000480210004824200940278001e029000da
:1007f400848f5200170032004e4290008482fb0026
:100804004e4290000482fb00040342000481210054
:100814000402430014027800c92add0084824200e5
:100824000480200004824200de429000054a7800e1
:100834004e4290000482fb008402420004812100a5
:10084400048242009e029000050a780014c0b3009e
:10085400044f78001e427800044078000080fa00bb
:10086400000006000000fa0034002000a4368800ce
:100874009401200024358800740620004411880067
:100884000002eb00141188000002eb000411880040
:1008940021e2a8002342a8009560a8009580a80042
:1008a40054002000b43688007401200034358800d8
:1008b40074062000c41188000002eb009411880023
:1008c4000002eb008411880031e2a8003342a80042
:1008d40097c0a80097e0a800c4012000c43688008f
:1008e40004b020001435880074062000c412880067
:1008f4000002eb00941288000002eb0084128800ce
:1009040051e2a8005342a8009e40a8009e60a8009f
:10091400e40120002436880024002000b435880037
:1009240074062000c41588000002eb0094158800aa
:100934000002eb0084158800b1e2a800b342a800cd
:100944009f00a8009f20a8000080fa000000060075
:100954000000fa00341180000442780084407800da
:100964000040eb0085ff0700048221001442780058
:100974000404a0000443780005822100864a78001c
:1009840014c0b300044078000080fa0000000600a0
:100994000000fa00b411800004427800844078001a
:1009a40010c0b30075ff07000482210014427800d0
:1009b4000414a0000443780005822100864a7800cc
:1009c40014c0b300044078000080fa000000060060
:1009d4000000fa00b41280000442780084407800d9
:1009e40020c0b30065ff0700048221001442780090
:1009f4000424a0000443780005822100864a78007c
:100a040014c0b300044078000080fa00000006001f
:100a14000000fa00b4158000044278008440780095
:100a240030c0b30055ff070004822100144278004f
:100a34000434a0000443780005822100864a78002b
:100a440014c0b300044078000080fa0000000600df
:100a54000400fa0020479800314798002e42900085
:100a6400e34f52005a003e003e429000e74f5200ce
:100a740059003e003e429000e04f520003003a000d
:100a840014342000040f7800290037003e429000ff
:100a9400e14f520003003a00041a2000040f7800ca
:100aa400230037003e429000e24f520003003a0018
:100ab400040d2000040f78001d0037003e42900012
:100ac400e34f520003003a0074062000040f78003c
:100ad400170037003e429000e44f520003003a00f2
:100ae40034032000040f7800110037003e429000c8
:100af400e54f520003003a0094012000040f7800ef
:100b04000b0037003e429000e64f520003003a00cb
:100b140014012000040f7800050037003e429000c5
:100b2400e74f52002e003a0084002000040f7800a2
:100b34002e429000e04f520007003a0021e2a90043
:100b44002342a9001e0278004411880021e2a80073
:100b54002342a800230037002e429000e14f5200a8
:100b640007003a0031e2a9003342a9001e027800ce
:100b7400c411880031e2a8003342a80019003700ec
:100b84002e429000e24f520007003a0051e2a900c1
:100b94005342a9001e027800c412880051e2a80042
:100ba4005342a8000f0037002e429000e34f52003a
:100bb4000c003a00b1e2a900b342a9001e02780079
:100bc400c4158800b1e2a800b342a80005003700ac
:100bd400000000000300370000000000010037009f
:100be400000000000080fa00000006000000fa0087
:100bf40004a12000443588001401200054358800e5
:100c040074002000f43688000002eb0044128800cf
:100c14008540a9009540a800440580000480a000f8
:100c24000490a00004a0a00044058800041820003b
:100c3400141288000002eb002412880040c2a900ac
:100c440041e2a8000080fa00000006000000fa005b
:100c540045168000f4f72f000482620044168800d1
:100c64000420210034368800c4002000940c88003d
:100c74000002eb00a40c88000002eb00b40c880016
:100c840054002000840c8800f40f200064088800bd
:100c940004022800840888000080fa00000006008e
:100ca4000200fa00243a80000480a1000490a1000c
:100cb40004a0a100243a8800e4ff0700cbff07004a
:100cc400e8fe0700a4002000a40c880001003700ff
:100cd40000000000a40c8000ea0f5200030036005c
:100ce400a40c80000402e900a40c880040c0b300f6
:100cf4002ffe070000027800e00f520011003200be
:100d040004822100144278000482fb007002620015
:100d1400e00f52000b003a000482210014427800d4
:100d24000444a0000443780005822100864a780028
:100d340040c0b30050fe0700004278000482fb006c
:100d44002411880050c0b30019fe07000002780087
:100d5400e00f520013003200048221001442780094
:100d64008482fb000402200004826200e00f52002f
:100d74000c003a00058221009542780004c2b300b9
:100d840004c272000443780005822100864a780078
:100d940050c0b30038fe0700004278000482fb0014
:100da400a411880060c0b30001fe070000027800af
:100db400e00f520013003200048221001442780034
:100dc4008482fb000404200004826200e00f5200cd
:100dd4000c003a00058221009542780004c4b30057
:100de40004c272000443780005822100864a780018
:100df40060c0b30020fe0700004278000482fb00bc
:100e0400a412880070c0b300e9fd07000002780056
:100e1400e00f5200100032000482210014427800d6
:100e2400e04f52000c003500058221009542780005
:100e340004c8b30004c27200044378000582210090
:100e4400864a780070c0b3000bfe070000427800a9
:100e54000482fb00a4158800141180006e02620055
:100e6400e00f52000500320034118000044f780076
:100e740084782000100020000400010094118000f8
:100e84006e026200e00f520005003200b4118000cf
:100e9400044f780084782000200020000400010022
:100ea400941280006e026200e00f520005003200ce
:100eb400b4128000044f78008478200030002000b1
:100ec40004000100941580006e026200e00f5200dd
:100ed40005003200b4158000044f780084782000a7
:100ee40040002000040001000512800004042000da
:100ef40004826200e00f520075ff32008478200003
:100f0400500020000400010072ff37000200fa00c4
:100f1400004f78009e4278000582fb006123b900ef
:100f24000082eb008082eb000602420087824a00c6
:100f34004600200007002000860f5200878f5a00c9
:100f44001e003e0004600100040037000700370063
:100f54000a0037000d003700100037000002eb00d4
:100f6400041188003ffe0700150037000002eb0063
:100f7400841188003bfe0700110037000002eb00db
:100f84008412880037fe07000d0037000002eb00d2
:100f94008415880033fe0700090037000002eb00c7
:100fa400041288000042eb0084427800168221007b
:100fb400054b78000dff070001003700000000001a
:100fc4000080fa00000006003600f800809fbe0092
:100fd400829fbe00849fbe00869fbe003200f80040
:100fe40010002000900188000000fa000404200092
:100ff400a40c880056fe07008560a9000080fa0052
:101004003200f9004f03be004f02be004f01be0084
:101014004f00be003600f900004006003600f8001c
:10102400809fbe00829fbe00849fbe00869fbe003c
:101034003200f80010002000900188000000fa003f
:1010440004042000a40c880051fe070087c0a900f6
:101054000080fa003200f9004f03be004f02be00c8
:101064004f01be004f00be003600f90000400600ec
:101074003600f800809fbe00829fbe00849fbe00a1
:10108400869fbe003200f800100020009001880006
:101094000000fa0004042000a40c88004cfe0700a1
:1010a4008e40a9000080fa003200f9004f03be0010
:1010b4004f02be004f01be004f00be003600f900d3
:1010c400004006003600f800809fbe00829fbe00ec
:1010d400849fbe00869fbe003200f80010002000ee
:1010e400900188000000fa0004042000a40c880089
:1010f40047fe07008f00a9000080fa003200f900c3
:101104004f03be004f02be004f01be004f00be00a1
:101114003600f900004006003600f800809fbe004b
:10112400829fbe00849fbe00869fbe003200f800ee
:1011340010002000900188000200fa00040420003e
:10114400a40c880040c0b30019fd07000002780019
:10115400e00f52000800320040c0b30046fd070013
:1011640000427800044f78009e4278000582fb001c
:101174002411880007003700058221009542780079
:10118400f4ceb30004c262008442780006822100d7
:10119400054b78008580a9000080fa003200f90030
:1011a4004f03be004f02be004f01be004f00be0001
:1011b4003600f900004006003600f800809fbe00ab
:1011c400829fbe00849fbe00869fbe003200f8004e
:1011d40010002000900188000200fa00040420009e
:1011e400a40c880050c0b300f1fc07000002780092
:1011f400e00f52000800320050c0b3001efd07008b
:1012040000427800044f78009e4278000582fb007b
:10121400a411880007003700058221009542780058
:10122400f4cdb30004c26200844278000682210037
:10123400054b780087e0a9000080fa003200f9002d
:101244004f03be004f02be004f01be004f00be0060
:101254003600f900004006003600f800809fbe000a
:10126400829fbe00849fbe00869fbe003200f800ad
:1012740010002000900188000200fa0004042000fd
:10128400a40c880060c0b300c9fc07000002780009
:10129400e00f52000800320060c0b300f6fc070003
:1012a40000427800044f78009e4278000582fb00db
:1012b400a4128800070037000582210095427800b7
:1012c400f4cbb30004c26200844278000682210099
:1012d400054b78008e60a9000080fa003200f90006
:1012e4004f03be004f02be004f01be004f00be00c0
:1012f4003600f900004006003600f800809fbe006a
:10130400829fbe00849fbe00869fbe003200f8000c
:1013140010002000900188000200fa00040420005c
:10132400a40c880070c0b300a1fc07000002780080
:10133400e00f52000800320070c0b300cefc07007a
:1013440000427800044f78009e4278000582fb003a
:10135400a415880006003700048221001442780096
:101364000474a1008442780006822100054b7800b1
:101374008f20a9000080fa003200f9004f03be005c
:101384004f02be004f01be004f00be003600f90000
:10139400004006003600f800809fbe00829fbe0019
:1013a400849fbe00869fbe003200f800100020001b
:1013b400900188000400fa00441280001447980049
:1013c4001e429000044f7800840c2000a40c880076
:1013d40014822100144278000482fb00cfa2de00b4
:1013e4006600200007002000860f5200878f5a00f5
:1013f400cb003e00046001000600370066003700a1
:1014040077003700c6003700810037009d003700a1
:10141400b90037009e42900004cfb30004c26200ba
:101424000443780025822100864a78001e429000f9
:10143400634262000443780035822100864a7800c2
:1014440024822100144278000482fb00050320005a
:10145400850f52002400320005032000850f52003e
:1014640006003c00f00f52000b0032000502200081
:10147400850f5200310032003f0037000504200080
:10148400850f52003200320005082000850f5200fb
:10149400340032003800370074c0b30004437800cd
:1014a40015822100864a7800348221001442780093
:1014b400044078003efc07000002780014079800fe
:1014c4009e029000f40f2000848f52000300360027
:1014d40000c2eb00044f7800020037001e029000a7
:1014e400044f78002b00370074c0b3000443780025
:1014f40015822100864a7800348221001442780043
:10150400644242000440780029fc0700000278008d
:10151400140798009e029000f40f2000848f52005c
:101524000300360000c2eb00044f780002003700cd
:101534001e029000044f78001600370014c0b30058
:101544000443780015822100864a78001100370090
:1015540024c0b3000443780015822100864a780031
:101564000c00370064c0b3000443780015822100e6
:10157400864a7800070037000042eb0004437800f5
:1015840015822100864a780000c2eb00044f7800df
:10159400000000006a0037009e429000448221004f
:1015a400054a78003482210014427800044078000f
:1015b40031fc070000427800044f780014c0b300e7
:1015c4008442780056822100054b780044c0b30061
:1015d4008442780016822100054b780058003700b9
:1015e4001e42900046822100044b78000042eb002a
:1015f4000443780055822100864a780054c0b30021
:101604000443780015822100864a78004c00370094
:1016140055822100954278004482210014427800ca
:1016240084cf52000c00310034822100144278002f
:101634000440780010fc070000427800044f780052
:1016440054822100144278000442e80004437800e4
:1016540055822100864a78005582210095427800ff
:10166400448221001442780084cf520031003a00b1
:1016740074c0b3000443780015822100864a7800c0
:101684002f003700558221009542780044822100c2
:101694001442780084cf52000c00310034822100bf
:1016a40014427800644242009e4090000440780056
:1016b40032fc070054822100144278000442e800fe
:1016c4000443780055822100864a7800558221001f
:1016d40095427800448221001442780084cf52005d
:1016e40016003a000042eb00044378001582210002
:1016f400864a7800120037003482210014427800b0
:101704009e40900004407800d1fc07000042eb00aa
:101714000443780015822100864a780008003700c7
:101724000042eb000443780015822100864a7800c9
:101734000300370000000000010037000000000033
:101744009e4278000582fb00441288008540a9006f
:101754000080fa003200f9004f03be004f02be00c1
:101764004f01be004f00be003600f90000400600e5
:020000040000fa
:1017740000080000261000008000000000000000a7
:020000040000fa
:020000040001f9
:0457f000ffff0000b7
:020000040000fa
:020000040001f9
:0457f400ffff0000b3
:020000040000fa
:020000040001f9
:0457f8009ff9000015
:020000040000fa
:020000040001f9
:0457fc009f7f00008b
:00000001FF
