:020000040000fa
:080000000002040000000000f2
:020000040000fa
:0400080004030000ed
:020000040000fa
:04000c0004030000e9
:020000040000fa
:0400100004030000e5
:020000040000fa
:0400140004030000e1
:020000040000fa
:0400180004030000dd
:020000040000fa
:04001c0004030000d9
:020000040000fa
:0400200004030000d5
:020000040000fa
:0400240004030000d1
:020000040000fa
:0400280004030000cd
:020000040000fa
:04002c0004030000c9
:020000040000fa
:0400300004030000c5
:020000040000fa
:0400340004030000c1
:020000040000fa
:0400380004030000bd
:020000040000fa
:04003c0004030000b9
:020000040000fa
:0400400004030000b5
:020000040000fa
:0400440004030000b1
:020000040000fa
:0400480004030000ad
:020000040000fa
:04004c0004030000a9
:020000040000fa
:0400500004030000a5
:020000040000fa
:04005400420800005e
:020000040000fa
:040058000a09000091
:020000040000fa
:04005c000403000099
:020000040000fa
:040060000403000095
:020000040000fa
:040064000403000091
:020000040000fa
:04006800040300008d
:020000040000fa
:04006c000403000089
:020000040000fa
:040070000403000085
:020000040000fa
:040074000403000081
:020000040000fa
:04007800040300007d
:020000040000fa
:04007c000403000079
:020000040000fa
:040080000403000075
:020000040000fa
:040084000403000071
:020000040000fa
:04008800040300006d
:020000040000fa
:04008c000403000069
:020000040000fa
:040090000403000065
:020000040000fa
:040094000403000061
:020000040000fa
:04009800040300005d
:020000040000fa
:04009c000403000059
:020000040000fa
:0400a00074080000e0
:020000040000fa
:0400a40054090000fb
:020000040000fa
:0400a800040300004d
:020000040000fa
:0400ac000403000049
:020000040000fa
:0400b0000403000045
:020000040000fa
:0400b4000403000041
:020000040000fa
:0400b800040300003d
:020000040000fa
:0400bc000403000039
:020000040000fa
:0400c0000403000035
:020000040000fa
:0400c4000403000031
:020000040000fa
:0400c800040300002d
:020000040000fa
:0400cc000403000029
:020000040000fa
:0400d0000403000025
:020000040000fa
:0400d4000403000021
:020000040000fa
:0400d800040300001d
:020000040000fa
:0400dc000403000019
:020000040000fa
:0400e0000403000015
:020000040000fa
:0400e4000403000011
:020000040000fa
:0400e800040300000d
:020000040000fa
:0400ec000403000009
:020000040000fa
:0400f0000403000005
:020000040000fa
:0400f4000403000001
:020000040000fa
:0400f80004030000fd
:020000040000fa
:0400fc0004030000f9
:020000040000fa
:0401000004030000f4
:020000040000fa
:0401040004030000f0
:020000040000fa
:0401080004030000ec
:020000040000fa
:04010c0004030000e8
:020000040000fa
:04011000320a0000af
:020000040000fa
:0401140004030000e0
:020000040000fa
:0401180004030000dc
:020000040000fa
:04011c0004030000d8
:020000040000fa
:0401200004030000d4
:020000040000fa
:0401240004030000d0
:020000040000fa
:0401280004030000cc
:020000040000fa
:04012c0004030000c8
:020000040000fa
:0401300004030000c4
:020000040000fa
:0401340004030000c0
:020000040000fa
:0401380004030000bc
:020000040000fa
:04013c0004030000b8
:020000040000fa
:0401400004030000b4
:020000040000fa
:0401440004030000b0
:020000040000fa
:0401480004030000ac
:020000040000fa
:04014c0004030000a8
:020000040000fa
:0401500004030000a4
:020000040000fa
:0401540004030000a0
:020000040000fa
:04015800040300009c
:020000040000fa
:04015c000403000098
:020000040000fa
:040160000403000094
:020000040000fa
:040164000403000090
:020000040000fa
:04016800040300008c
:020000040000fa
:04016c000403000088
:020000040000fa
:04017000a6080000dd
:020000040000fa
:040174009e090000e0
:020000040000fa
:04017800040300007c
:020000040000fa
:04017c000403000078
:020000040000fa
:040180000403000074
:020000040000fa
:040184000403000070
:020000040000fa
:04018800d808000093
:020000040000fa
:04018c00e80900007e
:020000040000fa
:040190000403000064
:020000040000fa
:040194000403000060
:020000040000fa
:04019800040300005c
:020000040000fa
:04019c000403000058
:020000040000fa
:0401a0000403000054
:020000040000fa
:0401a4000403000050
:020000040000fa
:0401a800040300004c
:020000040000fa
:0401ac000403000048
:020000040000fa
:0401b0000403000044
:020000040000fa
:0401b4000403000040
:020000040000fa
:0401b800040300003c
:020000040000fa
:0401bc000403000038
:020000040000fa
:0401c0000403000034
:020000040000fa
:0401c4000403000030
:020000040000fa
:0401c800040300002c
:020000040000fa
:0401cc000403000028
:020000040000fa
:0401d0000403000024
:020000040000fa
:0401d4000403000020
:020000040000fa
:0401d800040300001c
:020000040000fa
:0401dc000403000018
:020000040000fa
:0401e0000403000014
:020000040000fa
:0401e4000403000010
:020000040000fa
:0401e800040300000c
:020000040000fa
:0401ec000403000008
:020000040000fa
:0401f0000403000004
:020000040000fa
:0401f4000403000000
:020000040000fa
:0401f80004030000fc
:020000040000fa
:0401fc0004030000f8
:020000040000fa
:0402080004030000eb
:020000040000fa
:04020c0004030000e7
:020000040000fa
:0402100004030000e3
:020000040000fa
:0402140004030000df
:020000040000fa
:0402180004030000db
:020000040000fa
:04021c0004030000d7
:020000040000fa
:0402200004030000d3
:020000040000fa
:0402240004030000cf
:020000040000fa
:0402280004030000cb
:020000040000fa
:04022c0004030000c7
:020000040000fa
:0402300004030000c3
:020000040000fa
:0402340004030000bf
:020000040000fa
:0402380004030000bb
:020000040000fa
:04023c0004030000b7
:020000040000fa
:0402400004030000b3
:020000040000fa
:0402440004030000af
:020000040000fa
:0402480004030000ab
:020000040000fa
:04024c0004030000a7
:020000040000fa
:0402500004030000a3
:020000040000fa
:04025400040300009f
:020000040000fa
:04025800040300009b
:020000040000fa
:04025c000403000097
:020000040000fa
:040260000403000093
:020000040000fa
:04026400040300008f
:020000040000fa
:04026800040300008b
:020000040000fa
:04026c000403000087
:020000040000fa
:040270000403000083
:020000040000fa
:04027400040300007f
:020000040000fa
:04027800040300007b
:020000040000fa
:04027c000403000077
:020000040000fa
:040280000403000073
:020000040000fa
:04028400040300006f
:020000040000fa
:04028800040300006b
:020000040000fa
:04028c000403000067
:020000040000fa
:040290000403000063
:020000040000fa
:04029400040300005f
:020000040000fa
:04029800040300005b
:020000040000fa
:04029c000403000057
:020000040000fa
:0402a0000403000053
:020000040000fa
:0402a400040300004f
:020000040000fa
:0402a800040300004b
:020000040000fa
:0402ac000403000047
:020000040000fa
:0402b0000403000043
:020000040000fa
:0402b400040300003f
:020000040000fa
:0402b800040300003b
:020000040000fa
:0402bc000403000037
:020000040000fa
:0402c0000403000033
:020000040000fa
:0402c400040300002f
:020000040000fa
:0402c800040300002b
:020000040000fa
:0402cc000403000027
:020000040000fa
:0402d0000403000023
:020000040000fa
:0402d400040300001f
:020000040000fa
:0402d800040300001b
:020000040000fa
:0402dc000403000017
:020000040000fa
:0402e0000403000013
:020000040000fa
:0402e400040300000f
:020000040000fa
:0402e800040300000b
:020000040000fa
:0402ec000403000007
:020000040000fa
:0402f0000403000003
:020000040000fa
:0402f40004030000ff
:020000040000fa
:0402f80004030000fb
:020000040000fa
:0402fc0004030000f7
:020000040000fa
:0403000004030000f2
:020000040000fa
:0403040004030000ee
:020000040000fa
:0403080004030000ea
:020000040000fa
:04030c0004030000e6
:020000040000fa
:0403100004030000e2
:020000040000fa
:0403140004030000de
:020000040000fa
:0403180004030000da
:020000040000fa
:04031c0004030000d6
:020000040000fa
:0403200004030000d2
:020000040000fa
:0403240004030000ce
:020000040000fa
:0403280004030000ca
:020000040000fa
:04032c0004030000c6
:020000040000fa
:0403300004030000c2
:020000040000fa
:0403340004030000be
:020000040000fa
:0403380004030000ba
:020000040000fa
:04033c0004030000b6
:020000040000fa
:0403400004030000b2
:020000040000fa
:0403440004030000ae
:020000040000fa
:0403480004030000aa
:020000040000fa
:04034c0004030000a6
:020000040000fa
:0403500004030000a2
:020000040000fa
:04035400040300009e
:020000040000fa
:04035800040300009a
:020000040000fa
:04035c000403000096
:020000040000fa
:040360000403000092
:020000040000fa
:04036400040300008e
:020000040000fa
:04036800040300008a
:020000040000fa
:04036c000403000086
:020000040000fa
:040370000403000082
:020000040000fa
:04037400040300007e
:020000040000fa
:04037800040300007a
:020000040000fa
:04037c000403000076
:020000040000fa
:040380000403000072
:020000040000fa
:04038400040300006e
:020000040000fa
:04038800040300006a
:020000040000fa
:04038c000403000066
:020000040000fa
:040390000403000062
:020000040000fa
:04039400040300005e
:020000040000fa
:04039800040300005a
:020000040000fa
:04039c000403000056
:020000040000fa
:0403a0000403000052
:020000040000fa
:0403a400040300004e
:020000040000fa
:0403a800040300004a
:020000040000fa
:0403ac000403000046
:020000040000fa
:0403b0000403000042
:020000040000fa
:0403b400040300003e
:020000040000fa
:0403b800040300003a
:020000040000fa
:0403bc000403000036
:020000040000fa
:0403c0000403000032
:020000040000fa
:0403c400040300002e
:020000040000fa
:0403c800040300002a
:020000040000fa
:0403cc000403000026
:020000040000fa
:0403d0000403000022
:020000040000fa
:0403d400040300001e
:020000040000fa
:0403d800040300001a
:020000040000fa
:0403dc000403000016
:020000040000fa
:0403e0000403000012
:020000040000fa
:0403e400040300000e
:020000040000fa
:0403e800040300000a
:020000040000fa
:0403ec000403000006
:020000040000fa
:0403f0000403000002
:020000040000fa
:0403f40004030000fe
:020000040000fa
:0403f80004030000fa
:020000040000fa
:0403fc0004030000f6
:020000040000fa
:100400006f8221000e7f22000e0188000000000094
:10041000000020000000e000020032000001200087
:100420002002880014000700790007000000e000a7
:1004300003003a0080bb20000100200002003700ca
:100440000000200001002000810f70000100320038
:1004500014000700000020000000e000020032004d
:100460000000020000000000200702000000000061
:100470000040da000000fe004440a90020002000f7
:100480000000e0000300320010002000900188000e
:100490004440a800000006008a1f78008b1f7800e7
:1004a00000000600a1028800800478000000eb0034
:1004b0001f003700e284440054a0b4009905ba003c
:1004c000e284440054a0b4009906ba00e2844400d7
:1004d00054a0b4000006eb00476fde00fd07b20039
:1004e000ae018800636ce10003003a00eaff0700f8
:1004f0000000eb000e003700606ce10008003a00dd
:10050000004deb000a05e800020039003420ec0041
:100510000af0a0008b05e900f9ff3e000400370057
:100520006168e100010032000086eb000b0007006b
:1005300019c7ba001905ba000e04e00003003a001a
:100540000a00e000dbff3a0000000600fe07b200f0
:10055000ae0288008a047800f5ff37000cd0a300b3
:10056000e20f4d001c00390089027800354dba00b9
:100570000a05e800020039003420ec000af0a0006f
:100580008b05e9000f003200254dba000a05e8008e
:10059000020039003420ec000af0a0008b05e900cd
:1005a000080032000c00e0000600320015cdba0051
:1005b0000a05e800020039003420ec000af0a0002f
:1005c0008b05e9008984e80054a0b4000b00e0002a
:1005d000e2ff3a00000006009902ba00055d7800cb
:1005e0008b05e900f7ff3200c82ade00055d7800c0
:1005f0008b05e900f3ff32000c00e000f1ff320050
:1006000019ddba00eeff37000040da000000fe00fe
:0406100000000500e1
:020000040000fa
:100614000400fa00204798002e409000e74f500055
:1006240029003e002e4090000080fb008000400026
:100634006080210000804000100f78002e40900060
:100644000080fb00800040006081210000804000a9
:10065400100078009e0f500002003a000000eb00ea
:100664001a0037002e4090000080fb0080004000fc
:100674006081210000804000100078009e0f50002f
:10068400080036002e4090000080fb0080004000ef
:100694006081210000804000100078001e0050009e
:1006a4000a0037002e4090000080fb0080004000cc
:1006b4006081210000804000100078001e0050007e
:1006c4000020b000010037000000eb000080fa00b9
:1006d400000006000400fa00204798000040eb00e8
:1006e400004f78002e409000e74f500035003e0048
:1006f4002e4090000080fb008000400060802100bc
:1007040000804000900078002e4090000080fb00a4
:1007140000014000608121000000410010007800c9
:10072400808f5000270032002e4090008080fb0014
:100734002e4090000080fb000001400060802100fa
:100744000000410010007800c908dd00008040006e
:1007540061802000614f78002e4090000080fb00f3
:100764000001400061802100810041009100780077
:100774008100e80000014000608021000000410089
:10078400010878002e4090000080fb0080004000ab
:10079400608021000080400090007800002020004c
:1007a400808f500007003a002e4090000080fb002c
:1007b4008000400060802100008040008000eb0049
:1007c400010878001e4078000080fa00000006004e
:1007d4000600fa0040479800514798000040eb009b
:1007e400004f78004e409000e74f50002e003e002e
:1007f4004e4090000080fb0080004000608121009a
:1008040000804000100078000000e8001007980005
:100814009e00900000202000808f500002003a00cb
:100824000000eb00100798004e4090000080fb0091
:10083400800040006080210000804000900078002b
:100844001e009000808f5000170032004e40900030
:100854000081fb004e4090000080fb0080004000bf
:100864006081210000804000100078006180200039
:100874004911dd000000410000804000de4090008e
:10088400014878004e4090000080fb00800040004a
:1008940060812100008040009e00900001087800e3
:1008a40010c0b300004f78001e4078000080fa00aa
:1008b400000006000000fa00510c8000f0ff200048
:1008c40000806000500c8800111f800000fc2f0085
:1008d400008060003000b300101f8800811d80007c
:1008e40000fc2f00008060000020a000801d880014
:1008f40070062000402888000225ef000025ef0044
:1009040001e5a8000345a8009560a8009580a8000b
:10091400111f8000f00f2c00808060000050200028
:1009240001007000101f8800911d800000fc2f0042
:10093400008060005000b300901d88007006200005
:10094400f02888001825ef001625ef0017e5a80009
:100954001945a80097c0a80097e0a800211f8000af
:1009640000fc2f00008060003001b300201f8800cd
:10097400711d8000f00f2c0080806000006020005a
:1009840001007000701d880070062000a0298800f6
:100994002e25ef002c25ef002de5a8002f45a800fb
:1009a4009e40a8009e60a800211f8000f00f2c002c
:1009b400808060000050210001007000201f88002a
:1009c400111e800000fc2f00008060007000b30046
:1009d400101e880070062000002a88003a25ef00c7
:1009e4003825ef0039e5a8003b45a8009f00a80082
:1009f4009f20a8000080fa00000006000000fa0012
:100a04003028800000407800804078000040eb00ef
:100a14006fff070000c8bf000004a00000e8b70093
:100a240010c0b3000080fa00000006000000fa00c5
:100a3400e0288000004078008040780010c0b300b7
:100a440063ff070000c8bf000014a00000e8b7005f
:100a540010c0b3000080fa00000006000000fa0095
:100a640090298000004078008040780020c0b300c6
:100a740057ff070000c8bf000024a00000e8b7002b
:100a840010c0b3000080fa00000006000000fa0065
:100a9400f0298000004078008040780030c0b30026
:100aa4004bff070000c8bf000034a00000e8b700f7
:100ab40010c0b3000080fa00000006000400fa0031
:100ac40020479800314798002e409000e34f500093
:100ad4005a003e003e409000e74f500059003e004f
:100ae4003e4090000004e00003003a00103420006f
:100af400000f7800290037003e409000e14f50007d
:100b040003003a00001a2000000f78002300370089
:100b14003e409000e24f500003003a00000d2000d8
:100b2400000f78001d0037003e409000e34f500056
:100b340003003a0070062000000f78001700370009
:100b44003e409000e44f500003003a003003200080
:100b5400000f7800110037003e409000e54f500030
:100b640003003a0090012000000f78000b003700ca
:100b74003e409000e64f500003003a001001200070
:100b8400000f7800050037003e409000e74f50000a
:100b94002e003a0080002000000f78002e409000c4
:100ba4000004e00007003a0001e5a9000345a9009c
:100bb4009e0078004128880001e5a8000345a800ac
:100bc400230037002e409000e14f500007003a0008
:100bd40017e5a9001945a9009e007800f1288800ae
:100be40017e5a8001945a800190037002e40900009
:100bf400e24f500007003a002de5a9002f45a90057
:100c04009e007800a12988002de5a8002f45a800a2
:100c14000f0037002e409000e34f50000c003a00c4
:100c240039e5a9003b45a9009e007800012a880007
:100c340039e5a8003b45a800050037000000000086
:100c4400030037000000000001003700000000002e
:100c54000080fa00000006000000fa00500c80003a
:100c64000090a100500c880001e3a900a11d8000a0
:100c7400f00f2c008080600000b0200001007000a4
:100c8400a01d8800a11d800000fc2f0000806000d2
:100c9400a000b300a01d8800b11d800000fc2f003f
:100ca400008060000030a000b01d8800f11e8000ac
:100cb400f00f2c00808060000070200001007000a4
:100cc400f01e88000c23ef000e23ef008b40a900d8
:100cd4009b40a80001068000007020000100700005
:100ce4000006880000182000001888000000230077
:100cf400101888000423ef0010002000a0188800ba
:100d040080002000401888000a23ef0001e3a800b7
:100d14000080fa00000006000000fa00500c800079
:100d24000020a100500c8800c11e800000fc2f0090
:100d340000806000d000b300c01e8800c000200006
:100d4400801388007222ef007422ef00500020000c
:100d540070138800f00f2000c012880000022800e1
:100d6400e01288000080fa00000006000200fa0089
:100d7400004f78001e80fb00e30f50001a00320081
:100d8400e30f500005003c00e10f50000800320062
:100d9400e20f50000d00320026003700e40f50002f
:100da40018003200e50f50001d003200210037000a
:100db4000225ef000025ef0001e5a8000345a80087
:100dc4009560a8009580a8001a0037001825ef0048
:100dd4001625ef0017e5a8001945a80097c0a8003c
:100de40097e0a800130037002e25ef002c25ef0014
:100df4002de5a8002f45a8009e40a8009e60a800ed
:100e04000c0037003a25ef003825ef0039e5a8003b
:100e14003b45a8009f00a8009f20a80005003700bc
:100e24000823ef000a23ef000168ef008aff0700a0
:100e3400000000000080fa00000006000200fa0032
:100e440011088000f08f2f000080600010088800d7
:100e54009221ef00b0ff07007fff070095fe070017
:100e6400a00020009013880001003700000000005b
:100e740090138000ea0f50000300360090138000a6
:100e84000000e9009013880040c0b300e0fd0700b3
:100e94000000e0000c00320000c8bf000080fb002e
:100ea400700060000000e00007003a0000c8bf00c6
:100eb4000044a00000e8b70040c0b30005fe0700ee
:100ec4000080fb002028880050c0b300d0fd07003c
:100ed4000000e0000d00320000c8bf008080fb006d
:100ee40000022000008060000000e00007003a00db
:100ef40000c8bf000054a00000e8b70050c0b30011
:100f0400f4fd07000080fb00d028880060c0b30017
:100f1400bffd07000000e0000d00320000c8bf0064
:100f24008080fb0000042000008060000000e000de
:100f340007003a0000c8bf000064a00000e8b70042
:100f440060c0b300e3fd07000080fb008029880037
:100f540070c0b300aefd07000000e0000c003200da
:100f640000c8bf000004e000090035000180200033
:100f74009140780000c8b30000c0700000e8b700da
:100f840070c0b300d3fd07000080fb00e029880097
:100f9400102880006e0060000000e00009003200ac
:100fa40010288000640060000000e00003003200ac
:100fb40030288000004f78000200370010c0b300d2
:100fc4006aff0700c02880006e0060000000e00097
:100fd40009003200c0288000640060000000e000c6
:100fe40003003200e0288000004f78000200370040
:100ff40020c0b3005dff0700702980006e00600010
:101004000000e000090032007029800064006000e4
:101014000000e0000300320090298000004f7800b7
:101024000200370030c0b30050ff0700d029800011
:101034006e0060000000e00009003200d02980004a
:10104400640060000000e00003003200f02980002a
:10105400004f78000200370040c0b30043ff070090
:101064004118800000142100008060000000e000ae
:101074007eff320050c0b3003cff07007cff370006
:101084003600f800809fbe00829fbe00849fbe0091
:10109400869fbe003200f8003400f80010002000e3
:1010a400a001880010002000900188000000fa00d0
:1010b400000420009013880050fe07008560a900fa
:1010c4000080fa003400f9003200f9004f03be003a
:1010d4004f02be004f01be004f00be003600f900b3
:1010e400004006003600f800809fbe00829fbe00cc
:1010f400849fbe00869fbe003200f8003400f800d2
:1011040010002000a0018800100020009001880039
:101114000000fa00000420009013880043fe07003a
:1011240087c0a9000080fa003400f9003200f900f9
:101134004f03be004f02be004f01be004f00be0071
:101144003600f900004006003600f800809fbe001b
:10115400829fbe00849fbe00869fbe003200f800be
:101164003400f80010002000a001880010002000c6
:10117400900188000000fa00000420009013880009
:1011840036fe07008e40a9000080fa003400f90002
:101194003200f9004f03be004f02be004f01be00f3
:1011a4004f00be003600f900004006003600f8008b
:1011b400809fbe00829fbe00849fbe00869fbe00ab
:1011c4003200f8003400f80010002000a00188006c
:1011d40010002000900188000000fa0000042000a4
:1011e4009013880029fe07008f00a9000080fa00f0
:1011f4003400f9003200f9004f03be004f02be0074
:101204004f01be004f00be003600f900004006004a
:101214003600f800809fbe00829fbe00849fbe00ff
:10122400869fbe003200f8003400f8001000200051
:10123400a001880010002000900188000200fa003c
:10124400000420009013880040c0b300f0fc0700a5
:101254000000e0000600320040c0b3001dfd07009e
:10126400004f78001e80fb00202888000300370010
:1012740000c8bf000044a10000e8b7008580a900b1
:101284000080fa003400f9003200f9004f03be0078
:101294004f02be004f01be004f00be003600f900f1
:1012a400004006003600f800809fbe00829fbe000a
:1012b400849fbe00869fbe003200f8003400f80010
:1012c40010002000a0018800100020009001880078
:1012d4000200fa00000420009013880050c0b300fc
:1012e400cbfc07000000e0000600320050c0b30051
:1012f400f8fc0700004f78001e80fb00d02888000f
:101304000300370000c8bf000054a10000e8b70084
:1013140087e0a9000080fa003400f9003200f900e7
:101324004f03be004f02be004f01be004f00be007f
:101334003600f900004006003600f800809fbe0029
:10134400829fbe00849fbe00869fbe003200f800cc
:101354003400f80010002000a001880010002000d4
:10136400900188000200fa00000420009013880015
:1013740060c0b300a6fc07000000e00006003200d5
:1013840060c0b300d3fc0700004f78001e80fb0050
:10139400802988000300370000c8bf000064a10052
:1013a40000e8b7008e60a9000080fa003400f9005c
:1013b4003200f9004f03be004f02be004f01be00d1
:1013c4004f00be003600f900004006003600f80069
:1013d400809fbe00829fbe00849fbe00869fbe0089
:1013e4003200f8003400f80010002000a00188004a
:1013f40010002000900188000200fa000004200080
:101404009013880070c0b30081fc07000000e00066
:101414000600320070c0b300aefc0700004f780035
:101424001e80fb00e02988000300370000c8bf00cd
:101434000074a10000e8b7008f20a9000080fa0022
:101444003400f9003200f9004f03be004f02be0021
:101454004f01be004f00be003600f90000400600f8
:101464003600f800809fbe00829fbe00849fbe00ad
:10147400869fbe003200f8003400f80010002000ff
:10148400a001880010002000900188000400fa00e8
:1014940060188000104798009e409000014f78002b
:1014a400800c20009013880001c8bf000080fb005e
:1014b400e20f50006a003200e20f500005003c00c9
:1014c4000000e0000a003200e10f50005100320039
:1014d40095003700e50f50007b003200e60f500006
:1014e4008c003200e40f5000640032008e0037009c
:1014f4009e40900000cfb30000c0600002e8b70037
:101504001e4090006340600003e8b70002c8bf00bb
:101514000080fb0001032000810f50001f003200f7
:1015240001032000810f500006003c00f00f500022
:101534000b00320001022000810f5000270032000e
:101544002f00370001042000810f500026003200d4
:1015540001082000810f50002600320028003700c7
:1015640070c0b30001e8b70003c8bf0028fc07003f
:10157400100798009e009000f00f2000808f50000c
:101584000300360000c0eb00004f78000200370073
:101594001e009000004f78001d00370070c0b3009b
:1015a40001e8b70003c8bf006440400018fc07000e
:1015b400100798009e009000f00f2000808f5000cc
:1015c4000300360000c0eb00004f78000200370033
:1015d4001e009000004f78000d00370010c0b300cb
:1015e40001e8b7000a00370020c0b30001e8b700e3
:1015f4000700370060c0b30001e8b70004003700fb
:101604000168ef0000c0eb00004f7800000000000c
:101614004a0037009e409000428020000149780033
:1016240003c8bf002bfc0700004f780010c0b300b4
:1016340005e8b700518020009140780004c8bf003d
:1016440080cf500003003a0070c0b30001e8b70037
:101654003a00370040c0b30001e8b7003700370054
:101664009e40900042802000014978000568ef0008
:1016740050c0b30001e8b7003000370051802000ab
:101684009140780004c8bf0080cf500006003100ac
:1016940003c8bf000ffc0700004f780005c8bf0057
:1016a4000040e80005e8b700518020009140780030
:1016b40004c8bf0080cf50001d003a0070c0b300c2
:1016c40001e8b7001d0037005180200091407800e8
:1016d40004c8bf0080cf50000700310003c8bf001a
:1016e400644040009e40900039fc070005c8bf00dc
:1016f4000040e80005e8b7005180200091407800e0
:1017040004c8bf0080cf50000b003a000168ef000e
:101714000a00370003c8bf009e409000e7fc0700a2
:101724000168ef00050037000168ef00030037008f
:101734000000000001003700000000001e80fb00d4
:10174400601888008b40a9000080fa003400f9007a
:101754003200f9004f03be004f02be004f01be002d
:0c1764004f00be003600f90000400600f7
:020000040000fa
:1017700006080000201000008000000000080000a3
:0c178000060000008000000000000000d7
:020000040000fa
:020000040002f8
:04aff0007f7300006b
:020000040000fa
:020000040002f8
:04aff400fff6000064
:020000040000fa
:020000040002f8
:04aff8009fb1000005
:020000040000fa
:020000040002f8
:04affc003f3f0000d3
:00000001FF
