:020000040000fa
:080000000002040000000000f2
:020000040000fa
:0400080008030000e9
:020000040000fa
:04000c0008030000e5
:020000040000fa
:0400100008030000e1
:020000040000fa
:0400140008030000dd
:020000040000fa
:0400180008030000d9
:020000040000fa
:04001c0008030000d5
:020000040000fa
:0400200008030000d1
:020000040000fa
:0400240008030000cd
:020000040000fa
:0400280008030000c9
:020000040000fa
:04002c0008030000c5
:020000040000fa
:0400300008030000c1
:020000040000fa
:0400340008030000bd
:020000040000fa
:0400380008030000b9
:020000040000fa
:04003c0008030000b5
:020000040000fa
:0400400008030000b1
:020000040000fa
:0400440008030000ad
:020000040000fa
:0400480008030000a9
:020000040000fa
:04004c0008030000a5
:020000040000fa
:040050007a09000029
:020000040000fa
:040054008a07000017
:020000040000fa
:04005800520800004a
:020000040000fa
:04005c000803000095
:020000040000fa
:040060000803000091
:020000040000fa
:04006400080300008d
:020000040000fa
:040068000803000089
:020000040000fa
:04006c000803000085
:020000040000fa
:040070000803000081
:020000040000fa
:04007400080300007d
:020000040000fa
:040078000803000079
:020000040000fa
:04007c000803000075
:020000040000fa
:040080000803000071
:020000040000fa
:04008400080300006d
:020000040000fa
:040088000803000069
:020000040000fa
:04008c000803000065
:020000040000fa
:040090000803000061
:020000040000fa
:04009400080300005d
:020000040000fa
:040098000803000059
:020000040000fa
:04009c000803000055
:020000040000fa
:0400a000bc07000099
:020000040000fa
:0400a4009c080000b4
:020000040000fa
:0400a8000803000049
:020000040000fa
:0400ac000803000045
:020000040000fa
:0400b0000803000041
:020000040000fa
:0400b400080300003d
:020000040000fa
:0400b8000803000039
:020000040000fa
:0400bc000803000035
:020000040000fa
:0400c0000803000031
:020000040000fa
:0400c400080300002d
:020000040000fa
:0400c8000803000029
:020000040000fa
:0400cc000803000025
:020000040000fa
:0400d0000803000021
:020000040000fa
:0400d400080300001d
:020000040000fa
:0400d8000803000019
:020000040000fa
:0400dc000803000015
:020000040000fa
:0400e0000803000011
:020000040000fa
:0400e400080300000d
:020000040000fa
:0400e8000803000009
:020000040000fa
:0400ec000803000005
:020000040000fa
:0400f0000803000001
:020000040000fa
:0400f40008030000fd
:020000040000fa
:0400f80008030000f9
:020000040000fa
:0400fc0008030000f5
:020000040000fa
:0401000008030000f0
:020000040000fa
:0401040008030000ec
:020000040000fa
:0401080008030000e8
:020000040000fa
:04010c0008030000e4
:020000040000fa
:0401100008030000e0
:020000040000fa
:0401140008030000dc
:020000040000fa
:0401180008030000d8
:020000040000fa
:04011c0008030000d4
:020000040000fa
:0401200008030000d0
:020000040000fa
:0401240008030000cc
:020000040000fa
:0401280008030000c8
:020000040000fa
:04012c0008030000c4
:020000040000fa
:0401300008030000c0
:020000040000fa
:0401340008030000bc
:020000040000fa
:0401380008030000b8
:020000040000fa
:04013c0008030000b4
:020000040000fa
:0401400008030000b0
:020000040000fa
:0401440008030000ac
:020000040000fa
:0401480008030000a8
:020000040000fa
:04014c0008030000a4
:020000040000fa
:0401500008030000a0
:020000040000fa
:04015400080300009c
:020000040000fa
:040158000803000098
:020000040000fa
:04015c000803000094
:020000040000fa
:040160000803000090
:020000040000fa
:04016400080300008c
:020000040000fa
:040168000803000088
:020000040000fa
:04016c000803000084
:020000040000fa
:04017000ee07000096
:020000040000fa
:04017400e608000099
:020000040000fa
:040178000803000078
:020000040000fa
:04017c000803000074
:020000040000fa
:040180000803000070
:020000040000fa
:04018400080300006c
:020000040000fa
:04018800200800004b
:020000040000fa
:04018c003009000036
:020000040000fa
:040190000803000060
:020000040000fa
:04019400080300005c
:020000040000fa
:040198000803000058
:020000040000fa
:04019c000803000054
:020000040000fa
:0401a0000803000050
:020000040000fa
:0401a400080300004c
:020000040000fa
:0401a8000803000048
:020000040000fa
:0401ac000803000044
:020000040000fa
:0401b0000803000040
:020000040000fa
:0401b400080300003c
:020000040000fa
:0401b8000803000038
:020000040000fa
:0401bc000803000034
:020000040000fa
:0401c0000803000030
:020000040000fa
:0401c400080300002c
:020000040000fa
:0401c8000803000028
:020000040000fa
:0401cc000803000024
:020000040000fa
:0401d0000803000020
:020000040000fa
:0401d400080300001c
:020000040000fa
:0401d8000803000018
:020000040000fa
:0401dc000803000014
:020000040000fa
:0401e0000803000010
:020000040000fa
:0401e400080300000c
:020000040000fa
:0401e8000803000008
:020000040000fa
:0401ec000803000004
:020000040000fa
:0401f0000803000000
:020000040000fa
:0401f40008030000fc
:020000040000fa
:0401f80008030000f8
:020000040000fa
:0401fc0008030000f4
:020000040000fa
:0402080008030000e7
:020000040000fa
:04020c0008030000e3
:020000040000fa
:0402100008030000df
:020000040000fa
:0402140008030000db
:020000040000fa
:0402180008030000d7
:020000040000fa
:04021c0008030000d3
:020000040000fa
:0402200008030000cf
:020000040000fa
:0402240008030000cb
:020000040000fa
:0402280008030000c7
:020000040000fa
:04022c0008030000c3
:020000040000fa
:0402300008030000bf
:020000040000fa
:0402340008030000bb
:020000040000fa
:0402380008030000b7
:020000040000fa
:04023c0008030000b3
:020000040000fa
:0402400008030000af
:020000040000fa
:0402440008030000ab
:020000040000fa
:0402480008030000a7
:020000040000fa
:04024c0008030000a3
:020000040000fa
:04025000080300009f
:020000040000fa
:04025400080300009b
:020000040000fa
:040258000803000097
:020000040000fa
:04025c000803000093
:020000040000fa
:04026000080300008f
:020000040000fa
:04026400080300008b
:020000040000fa
:040268000803000087
:020000040000fa
:04026c000803000083
:020000040000fa
:04027000080300007f
:020000040000fa
:04027400080300007b
:020000040000fa
:040278000803000077
:020000040000fa
:04027c000803000073
:020000040000fa
:04028000080300006f
:020000040000fa
:04028400080300006b
:020000040000fa
:040288000803000067
:020000040000fa
:04028c000803000063
:020000040000fa
:04029000080300005f
:020000040000fa
:04029400080300005b
:020000040000fa
:040298000803000057
:020000040000fa
:04029c000803000053
:020000040000fa
:0402a000080300004f
:020000040000fa
:0402a400080300004b
:020000040000fa
:0402a8000803000047
:020000040000fa
:0402ac000803000043
:020000040000fa
:0402b000080300003f
:020000040000fa
:0402b400080300003b
:020000040000fa
:0402b8000803000037
:020000040000fa
:0402bc000803000033
:020000040000fa
:0402c000080300002f
:020000040000fa
:0402c400080300002b
:020000040000fa
:0402c8000803000027
:020000040000fa
:0402cc000803000023
:020000040000fa
:0402d000080300001f
:020000040000fa
:0402d400080300001b
:020000040000fa
:0402d8000803000017
:020000040000fa
:0402dc000803000013
:020000040000fa
:0402e000080300000f
:020000040000fa
:0402e400080300000b
:020000040000fa
:0402e8000803000007
:020000040000fa
:0402ec000803000003
:020000040000fa
:0402f00008030000ff
:020000040000fa
:0402f40008030000fb
:020000040000fa
:0402f80008030000f7
:020000040000fa
:0402fc0008030000f3
:020000040000fa
:0403000008030000ee
:020000040000fa
:0403040008030000ea
:020000040000fa
:0403080008030000e6
:020000040000fa
:04030c0008030000e2
:020000040000fa
:0403100008030000de
:020000040000fa
:0403140008030000da
:020000040000fa
:0403180008030000d6
:020000040000fa
:04031c0008030000d2
:020000040000fa
:0403200008030000ce
:020000040000fa
:0403240008030000ca
:020000040000fa
:0403280008030000c6
:020000040000fa
:04032c0008030000c2
:020000040000fa
:0403300008030000be
:020000040000fa
:0403340008030000ba
:020000040000fa
:0403380008030000b6
:020000040000fa
:04033c0008030000b2
:020000040000fa
:0403400008030000ae
:020000040000fa
:0403440008030000aa
:020000040000fa
:0403480008030000a6
:020000040000fa
:04034c0008030000a2
:020000040000fa
:04035000080300009e
:020000040000fa
:04035400080300009a
:020000040000fa
:040358000803000096
:020000040000fa
:04035c000803000092
:020000040000fa
:04036000080300008e
:020000040000fa
:04036400080300008a
:020000040000fa
:040368000803000086
:020000040000fa
:04036c000803000082
:020000040000fa
:04037000080300007e
:020000040000fa
:04037400080300007a
:020000040000fa
:040378000803000076
:020000040000fa
:04037c000803000072
:020000040000fa
:04038000080300006e
:020000040000fa
:04038400080300006a
:020000040000fa
:040388000803000066
:020000040000fa
:04038c000803000062
:020000040000fa
:04039000080300005e
:020000040000fa
:04039400080300005a
:020000040000fa
:040398000803000056
:020000040000fa
:04039c000803000052
:020000040000fa
:0403a000080300004e
:020000040000fa
:0403a400080300004a
:020000040000fa
:0403a8000803000046
:020000040000fa
:0403ac000803000042
:020000040000fa
:0403b000080300003e
:020000040000fa
:0403b400080300003a
:020000040000fa
:0403b8000803000036
:020000040000fa
:0403bc000803000032
:020000040000fa
:0403c000080300002e
:020000040000fa
:0403c400080300002a
:020000040000fa
:0403c8000803000026
:020000040000fa
:0403cc000803000022
:020000040000fa
:0403d000080300001e
:020000040000fa
:0403d400080300001a
:020000040000fa
:0403d8000803000016
:020000040000fa
:0403dc000803000012
:020000040000fa
:0403e000080300000e
:020000040000fa
:0403e400080300000a
:020000040000fa
:0403e8000803000006
:020000040000fa
:0403ec000803000002
:020000040000fa
:0403f00008030000fe
:020000040000fa
:0403f40008030000fa
:020000040000fa
:0403f80008030000f6
:020000040000fa
:0403fc0008030000f2
:020000040000fa
:100400006f8221000e7f22000e0188000000000094
:10041000000020000000e000020032000001200087
:1004200020028800140007007b0007000000e000a5
:1004300003003a0000b02000010020000200370055
:100440000000200001002000810f70000100320038
:1004500014000700000020000000e000020032004d
:100460000000020000000000420602000000000040
:100470000040da000000fe004440a90020002000f7
:100480000000e0000300320010002000900188000e
:100490004440a800000006008a1f78008b1f7800e7
:1004a00000000600a1028800800478000000eb0034
:1004b0001f003700e284440054a0b4009905ba003c
:1004c000e284440054a0b4009906ba00e2844400d7
:1004d00054a0b4000006eb00476fde00fd07b20039
:1004e000ae018800636ce10003003a00eaff0700f8
:1004f0000000eb000e003700606ce10008003a00dd
:10050000004deb000a05e800020039003420ec0041
:100510000af0a0008b05e900f9ff3e000400370057
:100520006168e100010032000086eb000b0007006b
:1005300019c7ba001905ba000e04e00003003a001a
:100540000a00e000dbff3a0000000600fe07b200f0
:10055000ae0288008a047800f5ff37000cd0a300b3
:10056000e20f4d001c00390089027800354dba00b9
:100570000a05e800020039003420ec000af0a0006f
:100580008b05e9000f003200254dba000a05e8008e
:10059000020039003420ec000af0a0008b05e900cd
:1005a000080032000c00e0000600320015cdba0051
:1005b0000a05e800020039003420ec000af0a0002f
:1005c0008b05e9008984e80054a0b4000b00e0002a
:1005d000e2ff3a00000006009902ba00055d7800cb
:1005e0008b05e900f7ff3200c82ade00055d7800c0
:1005f0008b05e900f3ff32000c00e000f1ff320050
:1006000019ddba00eeff3700000000000000000016
:0c0610000040da000000fe0000000500c1
:020000040000fa
:10061c000400fa00204798002e409000e74f50004d
:10062c0029003e002e4090000080fb00800040001e
:10063c006080210000804000100f78002e40900058
:10064c000080fb00800040006081210000804000a1
:10065c00100078009e0f500002003a000000eb00e2
:10066c001a0037002e4090000080fb0080004000f4
:10067c006081210000804000100078009e0f500027
:10068c00080036002e4090000080fb0080004000e7
:10069c006081210000804000100078001e00500096
:1006ac000a0037002e4090000080fb0080004000c4
:1006bc006081210000804000100078001e00500076
:1006cc000020b00001003700000037000080fa0065
:1006dc00000006000400fa00204798000040eb00e0
:1006ec00004f78002e409000e74f500035003e0040
:1006fc002e4090000080fb008000400060802100b4
:10070c0000804000900078002e4090000080fb009c
:10071c0000014000608121000000410010007800c1
:10072c00808f5000270032002e4090008080fb000c
:10073c002e4090000080fb000001400060802100f2
:10074c000000410010007800c908dd000080400066
:10075c0061802000614f78002e4090000080fb00eb
:10076c00000140006180210081004100910078006f
:10077c008100e80000014000608021000000410081
:10078c00010878002e4090000080fb0080004000a3
:10079c006080210000804000900078000020200044
:1007ac00808f500007003a002e4090000080fb0024
:1007bc008000400060802100008040008000eb0041
:1007cc00010878001e4078000080fa000000060046
:1007dc000600fa0040479800514798000040eb0093
:1007ec00004f78004e409000e74f50002e003e0026
:1007fc004e4090000080fb00800040006081210092
:10080c0000804000100078000000e80010079800fd
:10081c009e00900000202000808f500002003a00c3
:10082c000000eb00100798004e4090000080fb0089
:10083c008000400060802100008040009000780023
:10084c001e009000808f5000170032004e40900028
:10085c000081fb004e4090000080fb0080004000b7
:10086c006081210000804000100078006180200031
:10087c004911dd000000410000804000de40900086
:10088c00014878004e4090000080fb008000400042
:10089c0060812100008040009e00900001087800db
:1008ac0010c0b300004f78001e4078000080fa00a2
:1008bc00000006000000fa0030002000a03688007e
:1008cc00900120002035880070062000401188001f
:1008dc002222ef002022ef0021e2a8002342a800f0
:1008ec009560a8009580a80050002000b0368800c4
:1008fc00700120003035880070062000c01188007f
:10090c003222ef003022ef0031e2a8003342a8007f
:10091c0097c0a80097e0a800c0012000c03688004e
:10092c0000b020001035880070062000c01288002e
:10093c005222ef005022ef0051e2a8005342a800cf
:10094c009e40a8009e60a800e00120002036880090
:10095c0020002000b035880070062000c0158800eb
:10096c00b222ef00b022ef00b1e2a800b342a8001f
:10097c009f00a8009f20a8000080fa00000006003d
:10098c000000fa00301180000040780080407800b0
:10099c000040eb008eff070000c8bf000004a00061
:1009ac0000e8b70010c0b3000080fa000000060099
:1009bc000000fa00b0118000004078008040780000
:1009cc0010c0b30082ff070000c8bf000014a000d5
:1009dc0000e8b70010c0b3000080fa000000060069
:1009ec000000fa00b01280000040780080407800cf
:1009fc0020c0b30076ff070000c8bf000024a00091
:100a0c0000e8b70010c0b3000080fa000000060038
:100a1c000000fa00b015800000407800804078009b
:100a2c0030c0b3006aff070000c8bf000034a0004c
:100a3c0000e8b70010c0b3000080fa000000060008
:100a4c000400fa0020479800314798002e4090008f
:100a5c00e34f50005a003e003e409000e74f5000dc
:100a6c0059003e003e4090000004e00003003a00b4
:100a7c0010342000000f7800290037003e40900011
:100a8c00e14f500003003a00001a2000000f7800dc
:100a9c00230037003e409000e24f500003003a0024
:100aac00000d2000000f78001d0037003e40900024
:100abc00e34f500003003a0070062000000f78004e
:100acc00170037003e409000e44f500003003a00fe
:100adc0030032000000f7800110037003e409000da
:100aec00e54f500003003a0090012000000f780001
:100afc000b0037003e409000e64f500003003a00d8
:100b0c0010012000000f7800050037003e409000d7
:100b1c00e74f50002e003a0080002000000f7800b4
:100b2c002e4090000004e00007003a0021e2a900ea
:100b3c002342a9009e0078004111880021e2a80000
:100b4c002342a800230037002e409000e14f5000b4
:100b5c0007003a0031e2a9003342a9009e00780058
:100b6c00c111880031e2a8003342a80019003700f7
:100b7c002e409000e24f500007003a0051e2a900cd
:100b8c005342a9009e007800c112880051e2a800cf
:100b9c005342a8000f0037002e409000e34f500046
:100bac000c003a00b1e2a900b342a9009e00780003
:100bbc00c1158800b1e2a800b342a80005003700b7
:100bcc0000000000030037000000000001003700a7
:100bdc00000000000080fa00000006000000fa008f
:100bec0000a12000403588001001200050358800fd
:100bfc0070002000f03688004822ef008540a900e4
:100c0c009540a80041058000007020000100700094
:100c1c004005880000182000101288004422ef00c4
:100c2c0040c2a90041e2a8000080fa0000000600c2
:100c3c000000fa00401680000070a10040168800e9
:100c4c000020210030368800c0002000900c880065
:100c5c009421ef009621ef0050002000800c8800ba
:100c6c00f00f20006008880000022800800888002f
:100c7c000080fa00000006000200fa00213a800011
:100c8c00f08f2f0000806000203a8800e8ff0700fa
:100c9c00d2ff070007ff0700a0002000a00c88006f
:100cac000100370000000000a00c8000ea0f50008b
:100cbc0003003600a00c80000000e900a00c8800a6
:100ccc0040c0b30052fe07000000e0000c003200f0
:100cdc0000c8bf000080fb00700060000000e00056
:100cec0007003a0000c8bf000044a00000e8b700ad
:100cfc0040c0b30077fe07000080fb002011880085
:100d0c0050c0b30042fe07000000e0000d003200ae
:100d1c0000c8bf008080fb00000220000080600043
:100d2c000000e00007003a0000c8bf000054a0001b
:100d3c0000e8b70050c0b30066fe07000080fb005f
:100d4c00a011880060c0b30031fe07000000e00075
:100d5c000d00320000c8bf008080fb0000042000a2
:100d6c00008060000000e00007003a0000c8bf00ef
:100d7c000064a00000e8b70060c0b30055fe070097
:100d8c000080fb00a012880070c0b30020fe07009a
:100d9c000000e0000c00320000c8bf000004e000be
:100dac0009003500018020009140780000c8b30094
:100dbc0000c0700000e8b70070c0b30045fe07002b
:100dcc000080fb00a0158800101180006e006000f0
:100ddc000000e0000500320030118000004f780068
:100dec0041742000100020000100010090118000cf
:100dfc006e0060000000e00005003200b0118000c1
:100e0c00004f7800417420002000200001000100f8
:100e1c00901280006e0060000000e00005003200bf
:100e2c00b0128000004f7800417420003000200088
:100e3c0001000100901580006e0060000000e000d1
:100e4c0005003200b0158000004f7800417420007e
:100e5c00400020000100010001128000000420006d
:100e6c00008060000000e0008eff32004174200022
:100e7c0050002000010001008bff37000200fa0037
:100e8c00004f78001e80fb00e30f50001200320070
:100e9c00e30f500005003c00e10f50000800320049
:100eac00e20f50000900320015003700e40f50002b
:100ebc000c003200e50f50000d003200100037001e
:100ecc002022ef007bfe07000d0037003022ef00e0
:100edc0078fe07000a0037005022ef0075fe07006d
:100eec0007003700b022ef0072fe07000400370045
:100efc004022ef000168ef0038ff070000000000ff
:100f0c000080fa00000006003600f800809fbe004a
:100f1c00829fbe00849fbe00869fbe003200f800f8
:100f2c003400f80010002000a00188001000200000
:100f3c00900188000000fa0000042000a00c88003a
:100f4c008ffe07008560a9000080fa003400f900cc
:100f5c003200f9004f03be004f02be004f01be002d
:100f6c004f00be003600f900004006003600f800c5
:100f7c00809fbe00829fbe00849fbe00869fbe00e5
:100f8c003200f8003400f80010002000a0018800a6
:100f9c0010002000900188000000fa0000042000de
:100fac00a00c880082fe070087c0a9000080fa0010
:100fbc003400f9003200f9004f03be004f02be00ae
:100fcc004f01be004f00be003600f9000040060085
:100fdc003600f800809fbe00829fbe00849fbe003a
:100fec00869fbe003200f8003400f800100020008c
:100ffc00a001880010002000900188000000fa0079
:10100c0000042000a00c880075fe07008e40a9008b
:10101c000080fa003400f9003200f9004f03be00e2
:10102c004f02be004f01be004f00be003600f9005b
:10103c00004006003600f800809fbe00829fbe0074
:10104c00849fbe00869fbe003200f8003400f8007a
:10105c0010002000a00188001000200090018800e2
:10106c000000fa0000042000a00c880068fe0700b5
:10107c008f00a9000080fa003400f9003200f9005a
:10108c004f03be004f02be004f01be004f00be001a
:10109c003600f900004006003600f800809fbe00c4
:1010ac00829fbe00849fbe00869fbe003200f80067
:1010bc003400f80010002000a0018800100020006f
:1010cc00900188000200fa0000042000a00c8800a7
:1010dc0040c0b3004efd07000000e00006003200e7
:1010ec0040c0b3007bfd0700004f78001e80fb0062
:1010fc00201188000300370000c8bf000044a10085
:10110c0000e8b7008580a9000080fa003400f900df
:10111c003200f9004f03be004f02be004f01be006b
:10112c004f00be003600f900004006003600f80003
:10113c00809fbe00829fbe00849fbe00869fbe0023
:10114c003200f8003400f80010002000a0018800e4
:10115c0010002000900188000200fa00000420001a
:10116c00a00c880050c0b30029fd07000000e0006f
:10117c000600320050c0b30056fd0700004f780047
:10118c001e80fb00a01188000300370000c8bf00c0
:10119c000054a10000e8b70087e0a9000080fa0025
:1011ac003400f9003200f9004f03be004f02be00bc
:1011bc004f01be004f00be003600f9000040060093
:1011cc003600f800809fbe00829fbe00849fbe0048
:1011dc00869fbe003200f8003400f800100020009a
:1011ec00a001880010002000900188000200fa0085
:1011fc0000042000a00c880060c0b30004fd0700b0
:10120c000000e0000600320060c0b30031fd0700b2
:10121c00004f78001e80fb00a012880003003700ee
:10122c0000c8bf000064a10000e8b7008e60a900f0
:10123c000080fa003400f9003200f9004f03be00c0
:10124c004f02be004f01be004f00be003600f90039
:10125c00004006003600f800809fbe00829fbe0052
:10126c00849fbe00869fbe003200f8003400f80058
:10127c0010002000a00188001000200090018800c0
:10128c000200fa0000042000a00c880070c0b3001b
:10129c00dffc07000000e0000600320070c0b30065
:1012ac000cfd0700004f78001e80fb00a015880085
:1012bc000300370000c8bf000074a10000e8b700ad
:1012cc008f20a9000080fa003400f9003200f900e8
:1012dc004f03be004f02be004f01be004f00be00c8
:1012ec003600f900004006003600f800809fbe0072
:1012fc00829fbe00849fbe00869fbe003200f80015
:10130c003400f80010002000a0018800100020001c
:10131c00900188000400fa004012800010479800e9
:10132c009e409000014f7800800c2000a00c88009b
:10133c0001c8bf000080fb00e20f50006a003200c1
:10134c00e20f500005003c000000e0000a003200f3
:10135c00e10f50005100320095003700e50f5000ae
:10136c007b003200e60f50008c003200e40f50007e
:10137c00640032008e0037009e40900000cfb30016
:10138c0000c0600002e8b7001e409000634060009f
:10139c0003e8b70002c8bf000080fb000103200077
:1013ac00810f50001f00320001032000810f5000fc
:1013bc0006003c00f00f50000b0032000102200030
:1013cc00810f5000270032002f003700010420004d
:1013dc00810f50002600320001082000810f5000c0
:1013ec00260032002800370070c0b30001e8b700b7
:1013fc0003c8bf0086fc0700100798009e009000f1
:10140c00f00f2000808f50000300360000c0eb006e
:10141c00004f7800020037001e009000004f78004b
:10142c001d00370070c0b30001e8b70003c8bf004f
:10143c006440400076fc0700100798009e00900066
:10144c00f00f2000808f50000300360000c0eb002e
:10145c00004f7800020037001e009000004f78000b
:10146c000d00370010c0b30001e8b7000a003700c8
:10147c0020c0b30001e8b7000700370060c0b3001c
:10148c0001e8b700040037000168ef0000c0eb0072
:10149c00004f7800000000004a0037009e4090008a
:1014ac00428020000149780003c8bf0089fc070076
:1014bc00004f780010c0b30005e8b7005180200041
:1014cc009140780004c8bf0080cf500003003a0060
:1014dc0070c0b30001e8b7003a00370040c0b30059
:1014ec0001e8b700370037009e4090004280200092
:1014fc00014978000568ef0050c0b30001e8b7005f
:10150c0030003700518020009140780004c8bf00a3
:10151c0080cf50000600310003c8bf006dfc0700ef
:10152c00004f780005c8bf000040e80005e8b70090
:10153c00518020009140780004c8bf0080cf50003b
:10154c001d003a0070c0b30001e8b7001d00370061
:10155c00518020009140780004c8bf0080cf50001b
:10156c000700310003c8bf00644040009e4090005b
:10157c0097fc070005c8bf000040e80005e8b7006d
:10158c00518020009140780004c8bf0080cf5000eb
:10159c000b003a000168ef000a00370003c8bf00d7
:1015ac009e40900026fd07000168ef000500370003
:1015bc000168ef0003003700000000000100370055
:1015cc00000000001e80fb00401288008540a9002e
:1015dc000080fa003400f9003200f9004f03be001d
:1015ec004f02be004f01be004f00be003600f90096
:0415fc0000400600a5
:020000040000fa
:101600000608000020100000800000000008000014
:0c16100006000000800000000000000048
:020000040000fa
:020000040001f9
:0457f000ffff0000b7
:020000040000fa
:020000040001f9
:0457f400ffff0000b3
:020000040000fa
:020000040001f9
:0457f8009ff9000015
:020000040000fa
:020000040001f9
:0457fc009f7f00008b
:00000001FF
