:020000040000fa
:080000000002040000000000f2
:020000040000fa
:0400080008030000e9
:020000040000fa
:04000c0008030000e5
:020000040000fa
:0400100008030000e1
:020000040000fa
:0400140008030000dd
:020000040000fa
:0400180008030000d9
:020000040000fa
:04001c0008030000d5
:020000040000fa
:0400200008030000d1
:020000040000fa
:0400240008030000cd
:020000040000fa
:0400280008030000c9
:020000040000fa
:04002c0008030000c5
:020000040000fa
:0400300008030000c1
:020000040000fa
:0400340008030000bd
:020000040000fa
:0400380008030000b9
:020000040000fa
:04003c0008030000b5
:020000040000fa
:0400400008030000b1
:020000040000fa
:0400440008030000ad
:020000040000fa
:0400480008030000a9
:020000040000fa
:04004c0008030000a5
:020000040000fa
:04005000481600004e
:020000040000fa
:04005400d8140000bc
:020000040000fa
:04005800601500002f
:020000040000fa
:04005c000803000095
:020000040000fa
:040060000803000091
:020000040000fa
:04006400080300008d
:020000040000fa
:040068000803000089
:020000040000fa
:04006c000803000085
:020000040000fa
:040070000803000081
:020000040000fa
:04007400080300007d
:020000040000fa
:040078000803000079
:020000040000fa
:04007c000803000075
:020000040000fa
:040080000803000071
:020000040000fa
:04008400080300006d
:020000040000fa
:040088000803000069
:020000040000fa
:04008c000803000065
:020000040000fa
:040090000803000061
:020000040000fa
:04009400080300005d
:020000040000fa
:040098000803000059
:020000040000fa
:04009c000803000055
:020000040000fa
:0400a000fa1400004e
:020000040000fa
:0400a4009a150000a9
:020000040000fa
:0400a8000803000049
:020000040000fa
:0400ac000803000045
:020000040000fa
:0400b0000803000041
:020000040000fa
:0400b400080300003d
:020000040000fa
:0400b8000803000039
:020000040000fa
:0400bc000803000035
:020000040000fa
:0400c0000803000031
:020000040000fa
:0400c400080300002d
:020000040000fa
:0400c8000803000029
:020000040000fa
:0400cc000803000025
:020000040000fa
:0400d0000803000021
:020000040000fa
:0400d400080300001d
:020000040000fa
:0400d8000803000019
:020000040000fa
:0400dc000803000015
:020000040000fa
:0400e0000803000011
:020000040000fa
:0400e400080300000d
:020000040000fa
:0400e8000803000009
:020000040000fa
:0400ec000803000005
:020000040000fa
:0400f0000803000001
:020000040000fa
:0400f40008030000fd
:020000040000fa
:0400f80008030000f9
:020000040000fa
:0400fc0008030000f5
:020000040000fa
:0401000008030000f0
:020000040000fa
:0401040008030000ec
:020000040000fa
:0401080008030000e8
:020000040000fa
:04010c0008030000e4
:020000040000fa
:0401100008030000e0
:020000040000fa
:0401140008030000dc
:020000040000fa
:0401180008030000d8
:020000040000fa
:04011c0008030000d4
:020000040000fa
:0401200008030000d0
:020000040000fa
:0401240008030000cc
:020000040000fa
:0401280008030000c8
:020000040000fa
:04012c0008030000c4
:020000040000fa
:0401300008030000c0
:020000040000fa
:0401340008030000bc
:020000040000fa
:0401380008030000b8
:020000040000fa
:04013c0008030000b4
:020000040000fa
:0401400008030000b0
:020000040000fa
:0401440008030000ac
:020000040000fa
:0401480008030000a8
:020000040000fa
:04014c0008030000a4
:020000040000fa
:0401500008030000a0
:020000040000fa
:04015400080300009c
:020000040000fa
:040158000803000098
:020000040000fa
:04015c000803000094
:020000040000fa
:040160000803000090
:020000040000fa
:04016400080300008c
:020000040000fa
:040168000803000088
:020000040000fa
:04016c000803000084
:020000040000fa
:040170001c1500005a
:020000040000fa
:04017400d41500009e
:020000040000fa
:040178000803000078
:020000040000fa
:04017c000803000074
:020000040000fa
:040180000803000070
:020000040000fa
:04018400080300006c
:020000040000fa
:040188003e15000020
:020000040000fa
:04018c000e1600004b
:020000040000fa
:040190000803000060
:020000040000fa
:04019400080300005c
:020000040000fa
:040198000803000058
:020000040000fa
:04019c000803000054
:020000040000fa
:0401a0000803000050
:020000040000fa
:0401a400080300004c
:020000040000fa
:0401a8000803000048
:020000040000fa
:0401ac000803000044
:020000040000fa
:0401b0000803000040
:020000040000fa
:0401b400080300003c
:020000040000fa
:0401b8000803000038
:020000040000fa
:0401bc000803000034
:020000040000fa
:0401c0000803000030
:020000040000fa
:0401c400080300002c
:020000040000fa
:0401c8000803000028
:020000040000fa
:0401cc000803000024
:020000040000fa
:0401d0000803000020
:020000040000fa
:0401d400080300001c
:020000040000fa
:0401d8000803000018
:020000040000fa
:0401dc000803000014
:020000040000fa
:0401e0000803000010
:020000040000fa
:0401e400080300000c
:020000040000fa
:0401e8000803000008
:020000040000fa
:0401ec000803000004
:020000040000fa
:0401f0000803000000
:020000040000fa
:0401f40008030000fc
:020000040000fa
:0401f80008030000f8
:020000040000fa
:0401fc0008030000f4
:020000040000fa
:0402080008030000e7
:020000040000fa
:04020c0008030000e3
:020000040000fa
:0402100008030000df
:020000040000fa
:0402140008030000db
:020000040000fa
:0402180008030000d7
:020000040000fa
:04021c0008030000d3
:020000040000fa
:0402200008030000cf
:020000040000fa
:0402240008030000cb
:020000040000fa
:0402280008030000c7
:020000040000fa
:04022c0008030000c3
:020000040000fa
:0402300008030000bf
:020000040000fa
:0402340008030000bb
:020000040000fa
:0402380008030000b7
:020000040000fa
:04023c0008030000b3
:020000040000fa
:0402400008030000af
:020000040000fa
:0402440008030000ab
:020000040000fa
:0402480008030000a7
:020000040000fa
:04024c0008030000a3
:020000040000fa
:04025000080300009f
:020000040000fa
:04025400080300009b
:020000040000fa
:040258000803000097
:020000040000fa
:04025c000803000093
:020000040000fa
:04026000080300008f
:020000040000fa
:04026400080300008b
:020000040000fa
:040268000803000087
:020000040000fa
:04026c000803000083
:020000040000fa
:04027000080300007f
:020000040000fa
:04027400080300007b
:020000040000fa
:040278000803000077
:020000040000fa
:04027c000803000073
:020000040000fa
:04028000080300006f
:020000040000fa
:04028400080300006b
:020000040000fa
:040288000803000067
:020000040000fa
:04028c000803000063
:020000040000fa
:04029000080300005f
:020000040000fa
:04029400080300005b
:020000040000fa
:040298000803000057
:020000040000fa
:04029c000803000053
:020000040000fa
:0402a000080300004f
:020000040000fa
:0402a400080300004b
:020000040000fa
:0402a8000803000047
:020000040000fa
:0402ac000803000043
:020000040000fa
:0402b000080300003f
:020000040000fa
:0402b400080300003b
:020000040000fa
:0402b8000803000037
:020000040000fa
:0402bc000803000033
:020000040000fa
:0402c000080300002f
:020000040000fa
:0402c400080300002b
:020000040000fa
:0402c8000803000027
:020000040000fa
:0402cc000803000023
:020000040000fa
:0402d000080300001f
:020000040000fa
:0402d400080300001b
:020000040000fa
:0402d8000803000017
:020000040000fa
:0402dc000803000013
:020000040000fa
:0402e000080300000f
:020000040000fa
:0402e400080300000b
:020000040000fa
:0402e8000803000007
:020000040000fa
:0402ec000803000003
:020000040000fa
:0402f00008030000ff
:020000040000fa
:0402f40008030000fb
:020000040000fa
:0402f80008030000f7
:020000040000fa
:0402fc0008030000f3
:020000040000fa
:0403000008030000ee
:020000040000fa
:0403040008030000ea
:020000040000fa
:0403080008030000e6
:020000040000fa
:04030c0008030000e2
:020000040000fa
:0403100008030000de
:020000040000fa
:0403140008030000da
:020000040000fa
:0403180008030000d6
:020000040000fa
:04031c0008030000d2
:020000040000fa
:0403200008030000ce
:020000040000fa
:0403240008030000ca
:020000040000fa
:0403280008030000c6
:020000040000fa
:04032c0008030000c2
:020000040000fa
:0403300008030000be
:020000040000fa
:0403340008030000ba
:020000040000fa
:0403380008030000b6
:020000040000fa
:04033c0008030000b2
:020000040000fa
:0403400008030000ae
:020000040000fa
:0403440008030000aa
:020000040000fa
:0403480008030000a6
:020000040000fa
:04034c0008030000a2
:020000040000fa
:04035000080300009e
:020000040000fa
:04035400080300009a
:020000040000fa
:040358000803000096
:020000040000fa
:04035c000803000092
:020000040000fa
:04036000080300008e
:020000040000fa
:04036400080300008a
:020000040000fa
:040368000803000086
:020000040000fa
:04036c000803000082
:020000040000fa
:04037000080300007e
:020000040000fa
:04037400080300007a
:020000040000fa
:040378000803000076
:020000040000fa
:04037c000803000072
:020000040000fa
:04038000080300006e
:020000040000fa
:04038400080300006a
:020000040000fa
:040388000803000066
:020000040000fa
:04038c000803000062
:020000040000fa
:04039000080300005e
:020000040000fa
:04039400080300005a
:020000040000fa
:040398000803000056
:020000040000fa
:04039c000803000052
:020000040000fa
:0403a000080300004e
:020000040000fa
:0403a400080300004a
:020000040000fa
:0403a8000803000046
:020000040000fa
:0403ac000803000042
:020000040000fa
:0403b000080300003e
:020000040000fa
:0403b400080300003a
:020000040000fa
:0403b8000803000036
:020000040000fa
:0403bc000803000032
:020000040000fa
:0403c000080300002e
:020000040000fa
:0403c400080300002a
:020000040000fa
:0403c8000803000026
:020000040000fa
:0403cc000803000022
:020000040000fa
:0403d000080300001e
:020000040000fa
:0403d400080300001a
:020000040000fa
:0403d8000803000016
:020000040000fa
:0403dc000803000012
:020000040000fa
:0403e000080300000e
:020000040000fa
:0403e400080300000a
:020000040000fa
:0403e8000803000006
:020000040000fa
:0403ec000803000002
:020000040000fa
:0403f00008030000fe
:020000040000fa
:0403f40008030000fa
:020000040000fa
:0403f80008030000f6
:020000040000fa
:0403fc0008030000f2
:020000040000fa
:10040000ef8221000e7f22000e0188000000000014
:10041000000020000000e000020032000001200087
:1004200020028800140007007b0007000000e000a5
:1004300003003a00e03020000100200002003700f5
:100440000000200001002000810f70000100320038
:1004500014000700000020000000e000020032004d
:100460000000020000000000de1302000000000097
:100470000040da000000fe004440a90020002000f7
:100480000000e0000300320010002000900188000e
:100490004440a800000006008a1f78008b1f7800e7
:1004a00000000600a1028800800478000000eb0034
:1004b0001f003700e284440054a0b4009905ba003c
:1004c000e284440054a0b4009906ba00e2844400d7
:1004d00054a0b4000006eb00476fde00fd07b20039
:1004e000ae018800636ce10003003a00eaff0700f8
:1004f0000000eb000e003700606ce10008003a00dd
:10050000004deb000a05e800020039003420ec0041
:100510000af0a0008b05e900f9ff3e000400370057
:100520006168e100010032000086eb000b0007006b
:1005300019c7ba001905ba000e04e00003003a001a
:100540000a00e000dbff3a0000000600fe07b200f0
:10055000ae0288008a047800f5ff37000cd0a300b3
:10056000e20f4d001c00390089027800354dba00b9
:100570000a05e800020039003420ec000af0a0006f
:100580008b05e9000f003200254dba000a05e8008e
:10059000020039003420ec000af0a0008b05e900cd
:1005a000080032000c00e0000600320015cdba0051
:1005b0000a05e800020039003420ec000af0a0002f
:1005c0008b05e9008984e80054a0b4000b00e0002a
:1005d000e2ff3a00000006009902ba00055d7800cb
:1005e0008b05e900f7ff3200c82ade00055d7800c0
:1005f0008b05e900f3ff32000c00e000f1ff320050
:1006000019ddba00eeff3700000000000000000016
:0c0610000040da000000fe0000000500c1
:020000040000fa
:10061c000e080000201000008000000008080000f8
:10062c000600000080000000000800000800000028
:08063c00800000000000000036
:020000040000fa
:102000000400fa00204798002e409000e74f50004f
:1020100029003e002e4090000080fb008000400020
:10202000e080210000804000100f78002e409000da
:102030000080fb0080004000e08121000080400023
:10204000100078009e0f500002003a000000eb00e4
:102050001a0037002e4090000080fb0080004000f6
:10206000e081210000804000100078009e0f5000a9
:10207000080036002e4090000080fb0080004000e9
:10208000e081210000804000100078001e00500018
:102090000a0037002e4090000080fb0080004000c6
:1020a000e081210000804000100078001e005000f8
:1020b0000020b000010037000000eb000080fa00b3
:1020c000000006000400fa00204798000040eb00e2
:1020d000004f78002e409000e74f500035003e0042
:1020e0002e4090000080fb0080004000e080210036
:1020f00000804000900078002e4090000080fb009f
:1021000000014000e0812100000041001000780043
:10211000808f5000270032002e4090008080fb000e
:102120002e4090000080fb0000014000e080210074
:102130000000410010007800c908dd000080400068
:10214000e1802000614f78002e4090000080fb006d
:1021500000014000e18021008100410091007800f1
:102160008100e80000014000e08021000000410003
:10217000010878002e4090000080fb0080004000a5
:10218000e0802100008040009000780000202000c6
:10219000808f500007003a002e4090000080fb0026
:1021a00080004000e0802100008040008000eb00c3
:1021b000010878001e4078000080fa000000060048
:1021c0000600fa0040479800514798000040eb0095
:1021d000004f78004e409000e74f50002e003e0028
:1021e0004e4090000080fb0080004000e081210014
:1021f00000804000100078000000e8001007980000
:102200009e00900000202000808f500002003a00c5
:102210000000eb00100798004e4090000080fb008b
:1022200080004000e08021000080400090007800a5
:102230001e009000808f5000170032004e4090002a
:102240000081fb004e4090000080fb0080004000b9
:10225000e08121000080400010007800e180200033
:102260004911dd000000410000804000de40900088
:10227000014878004e4090000080fb008000400044
:10228000e0812100008040009e009000010878005d
:1022900010c0b300004f78001e4078000080fa00a4
:1022a000000006000a00fa000040eb00004f780032
:1022b0001c0037001e80fb000000400000004700ab
:1022c0000080e80071062000010878001e80fb00f5
:1022d000000040008e80e800008040009000780000
:1022e00010342000808f500007003e001e80fb004d
:1022f000000040008e80e800008040001000780060
:10230000e70f500006003e001e80fb00000040006a
:10231000000047000080e8007106200001087800f6
:102320001e4fe8001e407800e34f5000e1ff3600ea
:1023300030002000a0368800900120002035880061
:102340001e009000401188002222ef002022ef00a2
:1023500021e2a8002342a8009560a8009580a8006b
:1023600050002000b0368800700120003035880011
:102370002e009000c01188003222ef003022ef00c2
:1023800031e2a8003342a80097c0a80097e0a80057
:10239000c0012000c036880000b020001035880041
:1023a0003e009000c01288005222ef005022ef0041
:1023b00051e2a8005342a8009e40a8009e60a800d9
:1023c000e00120002036880020002000b035880081
:1023d0004e009000c0158800b222ef00b022ef003e
:1023e000b1e2a800b342a8009f00a8009f20a80067
:1023f0000080fa00000006000000fa0030118000a2
:1024000000407800804078000040eb006cff07003f
:1024100008c8bf000004a00008e8b70010c0b3005f
:102420000080fa00000006000000fa00b0118000f1
:10243000004078008040780010c0b30060ff0700c3
:1024400008c8bf000014a00008e8b70010c0b3001f
:102450000080fa00000006000000fa00b0128000c0
:10246000004078008040780020c0b30054ff07008f
:1024700008c8bf000024a00008e8b70010c0b300df
:102480000080fa00000006000000fa00b01580008d
:10249000004078008040780030c0b30048ff07005b
:1024a00008c8bf000034a00008e8b70010c0b3009f
:1024b0000080fa00000006000400fa00204798009f
:1024c000314798002e409000e34f50005a003e00e4
:1024d0003e409000e74f500059003e003e409000c3
:1024e0000004e00003003a0010342000000f7800e0
:1024f000290037003e409000e14f500003003a00b1
:10250000001a2000000f7800230037003e409000a2
:10251000e24f500003003a00000d2000000f780049
:102520001d0037003e409000e34f500003003a008a
:1025300070062000000f7800170037003e40900022
:10254000e44f500003003a0030032000000f7800f1
:10255000110037003e409000e54f500003003a0064
:1025600090012000000f78000b0037003e409000e3
:10257000e64f500003003a0010012000000f7800e1
:10258000050037003e409000e74f50002e003a0013
:1025900080002000000f78002e4090000004e00032
:1025a00007003a0021e2a9002342a9009e0078001a
:1025b0004111880021e2a8002342a800230037002f
:1025c0002e409000e14f500007003a0031e2a90090
:1025d0003342a9009e007800c111880031e2a800b2
:1025e0003342a800190037002e409000e24f5000ff
:1025f00007003a0051e2a9005342a9009e0078006a
:10260000c112880051e2a8005342a8000f00370011
:102610002e409000e34f50000c003a00b1e2a900b8
:10262000b342a9009e007800c1158800b1e2a8005d
:10263000b342a80005003700000000000300370087
:102640000000000001003700000000000080fa00d8
:10265000000006000000fa0000a1200040358800bc
:10266000100120005035880070002000f0368800ee
:102670004822ef008540a9009540a8004105800050
:102680000070200001007000400588000018200044
:10269000101288004422ef0040c2a90041e2a800c5
:1026a0000080fa00000006000000fa0040168000da
:1026b0000070a100401688000020210030368800fc
:1026c000c0002000900c88009421ef009621ef00bc
:1026d00050002000800c8800f00f20006008880067
:1026e00000022800800888000080fa000000060030
:1026f0000200fa00004f78001e80fb00e30f50003c
:102700001a003200e30f500005003c00e10f5000ba
:1027100008003200e20f50000d00320025003700a3
:10272000e40f500018003200e50f50001d00320089
:10273000200037002222ef002022ef0021e2a80033
:102740002342a8009560a8009580a80019003700d2
:102750003222ef003022ef0031e2a8003342a8001d
:1027600097c0a80097e0a800120037005222ef009f
:102770005022ef0051e2a8005342a8009e40a8005a
:102780009e60a8000b003700b222ef00b022ef00dd
:10279000b1e2a800b342a8009f00a8009f20a800b3
:1027a000040037004022ef000968ef00a9ff07008e
:1027b000000000000080fa00000006000200fa009d
:1027c000213a8000f08f2f0000806000203a8800be
:1027d000b5ff0700e00307009eff0700b1fe0700fa
:1027e000a0002000a00c88000100370000000000bd
:1027f000a00c8000ea0f500003003600a00c8000ff
:102800000000e900a00c880040c0b300fcfd0700f8
:102810000000e0000c00320008c8bf000080fb0090
:10282000700060000000e00007003a0008c8bf0028
:102830000044a00008e8b70040c0b30021fe070034
:102840000080fb002011880050c0b300ecfd0700a1
:102850000000e0000d00320008c8bf008080fb00cf
:1028600000022000008060000000e00007003a0045
:1028700008c8bf000054a00008e8b70050c0b3006b
:1028800010fe07000080fb00a011880060c0b300ac
:10289000dbfd07000000e0000d00320008c8bf00ab
:1028a0008080fb0000042000008060000000e00049
:1028b00007003a0008c8bf000064a00008e8b7009d
:1028c00060c0b300fffd07000080fb00a01288007d
:1028d00070c0b300cafd07000000e0000c00320029
:1028e00008c8bf000004e000090035008180200016
:1028f0009140780000c8b30000c0700008e8b7003d
:1029000070c0b300effd07000080fb00a015880039
:10291000101180006e0060000000e0000400320032
:1029200030118000004f780010c0b30070ff070026
:10293000901180006e0060000000e0000400320092
:10294000b0118000004f780020c0b30068ff07007e
:10295000901280006e0060000000e0000400320071
:10296000b0128000004f780030c0b30060ff070055
:10297000901580006e0060000000e000040032004e
:10298000b0158000004f780040c0b30058ff07002a
:102990000112800000042000008060000000e000c0
:1029a00092ff320050c0b30051ff070090ff370084
:1029b0003600f800809fbe00829fbe00849fbe004c
:1029c000869fbe000000fa0000042000a00c8800d2
:1029d00089fe07008560a9000080fa004f03be0051
:1029e0004f02be004f01be004f00be003600f9008e
:1029f000004006003600f800809fbe00829fbe00a7
:102a0000849fbe00869fbe000000fa0000042000e4
:102a1000a00c880084fe070087c0a9000080fa008f
:102a20004f03be004f02be004f01be004f00be006c
:102a30003600f900004006003600f800809fbe0016
:102a4000829fbe00849fbe00869fbe000000fa00e9
:102a500000042000a00c88007ffe07008e40a90023
:102a60000080fa004f03be004f02be004f01be00bf
:102a70004f00be003600f900004006003600f800a6
:102a8000809fbe00829fbe00849fbe00869fbe00c6
:102a90000000fa0000042000a00c88007afe070065
:102aa0008f00a9000080fa004f03be004f02be0055
:102ab0004f01be004f00be003600f9000040060086
:102ac0003600f800809fbe00829fbe00849fbe003b
:102ad000869fbe000200fa0000042000a00c8800bf
:102ae00040c0b30046fd07000000e00006003200d1
:102af00040c0b30073fd0700004f78001e80fb004c
:102b0000201188000300370008c8bf000044a1005e
:102b100008e8b7008580a9000080fa004f03be00d6
:102b20004f02be004f01be004f00be003600f9004c
:102b3000004006003600f800809fbe00829fbe0065
:102b4000849fbe00869fbe000200fa0000042000a1
:102b5000a00c880050c0b30029fd07000000e00071
:102b60000600320050c0b30056fd0700004f780049
:102b70001e80fb00a01188000300370008c8bf00ba
:102b80000054a10008e8b70087e0a9000080fa001f
:102b90004f03be004f02be004f01be004f00be00fb
:102ba0003600f900004006003600f800809fbe00a5
:102bb000829fbe00849fbe00869fbe000200fa0076
:102bc00000042000a00c880060c0b3000cfd0700ca
:102bd0000000e0000600320060c0b30039fd0700cd
:102be000004f78001e80fb00a01288000300370011
:102bf00008c8bf000064a10008e8b7008e60a90003
:102c00000080fa004f03be004f02be004f01be001d
:102c10004f00be003600f900004006003600f80004
:102c2000809fbe00829fbe00849fbe00869fbe0024
:102c30000200fa0000042000a00c880070c0b3005d
:102c4000effc07000000e0000600320070c0b30097
:102c50001cfd0700004f78001e80fb00a0158800b7
:102c60000300370008c8bf000074a10008e8b700df
:102c70008f20a9000080fa004f03be004f02be0063
:102c80004f01be004f00be003600f90000400600b4
:102c90003600f800809fbe00829fbe00849fbe0069
:102ca000869fbe000400fa00401280001047980082
:102cb0009e409000014f7800800c2000a00c8800fe
:102cc00009c8bf000080fb00e20f50006a0032001c
:102cd000e20f500005003c000000e0000a00320056
:102ce000e10f50005100320095003700e50f500011
:102cf0007b003200e60f50008c003200e40f5000e1
:102d0000640032008e0037009e40900000cfb30078
:102d100000c060000ae8b7001e40900063406000f9
:102d20000be8b7000ac8bf000080fb0001032000c9
:102d3000810f50001f00320001032000810f50005e
:102d400006003c00f00f50000b0032000102200092
:102d5000810f5000270032002f00370001042000af
:102d6000810f50002600320001082000810f500022
:102d7000260032002800370070c0b30009e8b70011
:102d80000bc8bf009efc0700100798009e00900033
:102d9000f00f2000808f50000300360000c0eb00d1
:102da000004f7800020037001e009000004f7800ae
:102db0001d00370070c0b30009e8b7000bc8bf00a2
:102dc000644040008efc0700100798009e009000b1
:102dd000f00f2000808f50000300360000c0eb0091
:102de000004f7800020037001e009000004f78006e
:102df0000d00370010c0b30009e8b7000a00370023
:102e000020c0b30009e8b7000700370060c0b30076
:102e100009e8b700040037000968ef0000c0eb00c4
:102e2000004f7800000000004a0037009e409000ec
:102e3000c2802000014978000bc8bf00a1fc070038
:102e4000004f780010c0b3000de8b700d18020001b
:102e5000914078000cc8bf0080cf500003003a00ba
:102e600070c0b30009e8b7003a00370040c0b300b3
:102e700009e8b700370037009e409000c28020006c
:102e8000014978000d68ef0050c0b30009e8b700b1
:102e900030003700d1802000914078000cc8bf007e
:102ea00080cf5000060031000bc8bf0085fc070032
:102eb000004f78000dc8bf000040e8000de8b700e3
:102ec000d1802000914078000cc8bf0080cf500016
:102ed0001d003a0070c0b30009e8b7001d003700bc
:102ee000d1802000914078000cc8bf0080cf5000f6
:102ef000070031000bc8bf00644040009e409000b6
:102f0000affc07000dc8bf000040e8000de8b700a7
:102f1000d1802000914078000cc8bf0080cf5000c5
:102f20000b003a000968ef000a0037000bc8bf0029
:102f30009e40900060fd07000968ef000500370023
:102f40000968ef00030037000000000001003700af
:102f5000000000001e80fb00401288008540a90090
:102f60000080fa004f03be004f02be004f01be00ba
:102f70004f00be003600f900004006000c00fa00c9
:102f8000204f98002e4890000080fb004900dd0093
:102f9000cf80de00008fbe0000802000cf80de00ea
:102fa0001e0f40005e974800a00280004047980036
:102fb0009e0078003107980000002000f1072000f3
:102fc0001e01be0002027800030178008001780033
:102fd0000100780003026200000061008000eb0045
:102fe000c000dd00000020000001be006120b8002c
:102ff00000017100818171004018de000100200095
:1030000000007800a00288003e0090008000eb00e5
:103010000108bb00110280004107980011028000e6
:10302000000e20000100700010028800200424001f
:10303000003b880050052000303b8800a00a20009b
:10304000303b880061e7a80000000000000000009d
:10305000ce0090001102880000000000003b8000bc
:103060000000e000fdff35004e4090000080fb00b6
:10307000a00288000080fa00000006000e00fa009e
:10308000404f9800514f98004e4890000080fb0040
:10309000c800dd005e4890000080fb00008040001a
:1030a00000004000cf80de00008fbe0000802000c6
:1030b000cf80de001e0f40005e974800a002800017
:1030c000404798009e0078003107980000002000db
:1030d000f10720001e01be00020278000301780003
:1030e00080017800010078000302620000006100a6
:1030f0008000eb00c000dd00000020000001be00e9
:103100006120b80000017100818171004018de006b
:103110000100200000007800a00288003e0090001e
:103120001080ba008000eb0040079800510798001b
:103130004e009000de009000c000dd000000200086
:1031400040079800510798003e0090001000ba0018
:103150006101b800f0ff2f0001002000020278009a
:10316000030178008001780001007800030262000a
:10317000000061008000eb00c000dd0000002000c6
:103180000001be006120b800000171008181710062
:103190004e009000de0090000200700083807000fe
:1031a00040079800510798004e4090000080fb00b7
:1031b000a00288004e009000de0090000080fa001f
:1031c000000006001000fa00204f9800314f9800d0
:1031d000424f9800730798002e4890000080fb0033
:1031e000c800dd003e4890000080fb0000804000e9
:1031f00000004000cf80de00008fbe000080200075
:10320000cf80de001e0f40005e974800a0028000c5
:10321000404798009e007800310798000000200089
:10322000f10720001e01be000202780003017800b1
:103230008001780001007800030262000000610054
:103240008000eb00c000dd00000020000001be0097
:103250006120b80000017100818171004018de001a
:103260000100200000007800a00288003e009000cd
:10327000fe0090000108bb004e4890008080fb00db
:103280003e0090000188bb001102800041079800b9
:1032900011028000000e2000010070001002880062
:1032a00030002400003b880050052000303b88009f
:1032b000a00a2000303b880061e7a8000000000061
:1032c00000000000ce009000110288000000000005
:1032d000003b80000000e000fdff35004e40900004
:1032e0000080fb00a00288000080fa0000000600b9
:1032f0000a00fa00004f98000e4890000080fb0082
:1033000061006000004078000004e0002c00320002
:103310000e4890000080fb000000d10000407800c3
:103320000080fb0000004000000f780010c0b300d8
:1033300020479800110037001e00780000407800f8
:103340008040eb004dff07002007980031079800f0
:103350002e009000be0090004008de00010020001a
:10336000e00f5000e08f580002003a001e0fe80006
:10337000020037000040eb00204798000e48900004
:103380000080fb009e0f5000030036002e4090008e
:103390000004e000e8ff3a002e4090000004e00046
:1033a000100032000e4890000080fb000000d100a9
:1033b0000040780000404000f0fe070009003700a0
:1033c0008040eb000e4890002cff0700000f7800b3
:1033d0009e0178000041eb008040eb000e48900019
:1033e00078ff07000080fa00000006000a00fa00db
:1033f000004f98000040eb00004f78002140800013
:10340000000d2d00808f500002003200d200070016
:10341000004f78000080eb00300798001e407800d5
:103420000004e00047003a0006c8bf000040e90081
:1034300010479800f0ff2f00f10f200010079800b0
:10344000210798002300370000c8bf009e4090006d
:103450000aff070010079800210798001e0090003f
:10346000ae0090004009de0003002000f00f2000b5
:10347000010020000202780003017800800178003a
:103480000100780003026200000061008000eb0090
:10349000c000dd00000020000001be006120b80077
:1034a00000017100818171000e4890000080fb00d6
:1034b0008000eb00800f5100818f590002003a001c
:1034c0009e009000310798001e4090000040e900e7
:1034d000104798001e4090000004e00019003200e0
:1034e0001e009000ae0090004009de0003002000a6
:1034f000f00f200001002000020278000301780094
:103500008001780001007800030262000000610081
:103510008000eb00c000dd00000020000001be00c4
:103520006120b80000017100818171000e48900097
:103530000080fb008000eb00800f5100818f59005c
:10354000c1ff3a003e0090000080fa000000060033
:103550000200fa000040eb00004f78000300370043
:103560001e40780085fe07001ecfe8001e40780050
:10357000e74f5000faff36000080fa000000060016
:103580000800fa0040479800310798000040eb001f
:10359000004f78000000eb001007980021408000e9
:1035a000000d2d00808f5000020032006a000700dd
:1035b000004f78000040eb00104798001e40780054
:1035c0000004e00018003a004e409000e44f400034
:1035d00015003e004e40900084ff07001007980041
:1035e0009e0090003e009000808f5000120032003c
:1035f000618020009140780000c8bf00be019000ab
:103600004e419000effe070006c8bf000040e800f2
:1036100006e8b70006c8bf00e34f400005003600cb
:10362000080007000400370000c0eb0010479800b6
:1036300001003700000000001e4090000080fa00ea
:10364000000006000800fa000040eb003047980038
:103650000040eb00004f78000040eb00404798002e
:103660000040eb00104798000040eb002047980016
:10367000018020009140780031479800628020004e
:1036800012417800424798003e409000004fe80009
:1036900010c0b300104798001e407800e74f50005c
:1036a000020036000040eb00004f78000040eb00c5
:1036b00020479800110037002e4090004bff070074
:1036c000300798003e009000e10f400008003200f3
:1036d000be0190002e4190009e4090001e40780058
:1036e000b8fe07001e4090000040e8001047980018
:1036f0002e4090000040e800204798002e409000a7
:10370000e44f4000ecff3600104080000000e8006d
:103710008001780002cfb3008040eb001e407800ab
:10372000a8fe07003e409000f1fe07001e41780011
:1037300001802000824878001e41900061802000b6
:1037400082487800104080000000e80010408800a7
:103750000080fa00000006000800fa000040eb00bc
:10376000004f78000068ef000040eb001047980021
:10377000010037000000000000c8bf008040eb00df
:103780003efe070010079800210798001e019000d8
:10379000ae019000f0ff2f00f10f20000202780030
:1037a00003017800800178000100780003026200c4
:1037b000000061008000eb00c000dd000000200080
:1037c0000001be006120b80000017100818171001c
:1037d000e00f5100e08f590003003a001e409000b6
:1037e0000040e800104798001e019000ae019000d4
:1037f000f0ff2f00f10f2000800f5100818f590042
:10380000070032001e009000ae0090004008de006d
:1038100001002000e00f5000e08f580004003a0043
:1038200000c8bf000040e80000e8b7000200370011
:103830001e0090001040880000c8bf00e74f5000f5
:1038400010003e001e019000ae019000f0ff2f001e
:10385000f10f2000800f5100818f590007003200c6
:103860001e009000ae0090004008de000100200025
:10387000e00f5000e08f580002003a0010002000d6
:10388000010037000000eb000000e000b9ff3a0043
:103890001e409000e84f50000b003a002cff07003c
:1038a0000068ef00100020001040880011408000e8
:1038b00000c8bf008101780002cfb3008040eb0058
:1038c00040fe07003700370000c8bf00e74f500038
:1038d0002b003e0000c8bf000004e0000e003a00cc
:1038e0008040eb0070c0b300e4fd070010079800b3
:1038f000210798001e019000ae019000f0ff2f00fc
:10390000f10f2000800f5100818f5900020032001a
:1039100070c0b30099fd070000c8bf00e54f50001c
:1039200020003e0000c8bf000040e8008040eb00df
:10393000d2fd070010079800210798001e00900094
:10394000ae0090004009de0003002000000f2000c0
:1039500001002000800f5100818f590011003a00b2
:1039600000c8bf0085fd070000c8bf000040e80098
:1039700000e8b7001e0090001040880009003700e2
:103980000068ef0010002000104088001140800007
:1039900000c8bf008101780002cfb3008040eb0077
:1039a00008fe070010c0b300004f78000100370088
:1039b0000000000000c8bf009e407800affd070077
:1039c00010079800210798001e019000ae0190009a
:1039d000f0ff2f00f10f2000800f5100818f590060
:1039e000010032001e4fe8001e407800e44f400006
:1039f00009003e001e019000ae019000f0ff2f0074
:103a0000f10f2000800f5100818f59000200320019
:103a100010002000010037000000eb000000e00073
:103a2000e3ff3a00000d2d00204088001e41780081
:103a300061802000824878000040eb0060479800d9
:0c3a40006e4090000080fa0000000600bc
:020000040000fa
:020000040001f9
:0457f000ffff0000b7
:020000040000fa
:020000040001f9
:0457f400ffff0000b3
:020000040000fa
:020000040001f9
:0457f8009ff9000015
:020000040000fa
:020000040001f9
:0457fc009f7f00008b
:00000001FF
