:020000040000fa
:080000000002040000000000f2
:020000040000fa
:0400080004030000ed
:020000040000fa
:04000c0004030000e9
:020000040000fa
:0400100004030000e5
:020000040000fa
:0400140004030000e1
:020000040000fa
:0400180004030000dd
:020000040000fa
:04001c0004030000d9
:020000040000fa
:0400200004030000d5
:020000040000fa
:0400240004030000d1
:020000040000fa
:0400280004030000cd
:020000040000fa
:04002c0004030000c9
:020000040000fa
:0400300004030000c5
:020000040000fa
:0400340004030000c1
:020000040000fa
:0400380004030000bd
:020000040000fa
:04003c0004030000b9
:020000040000fa
:0400400004030000b5
:020000040000fa
:0400440004030000b1
:020000040000fa
:0400480004030000ad
:020000040000fa
:04004c0004030000a9
:020000040000fa
:0400500004030000a5
:020000040000fa
:040054008008000020
:020000040000fa
:040058000809000093
:020000040000fa
:04005c000403000099
:020000040000fa
:040060000403000095
:020000040000fa
:040064000403000091
:020000040000fa
:04006800040300008d
:020000040000fa
:04006c000403000089
:020000040000fa
:040070000403000085
:020000040000fa
:040074000403000081
:020000040000fa
:04007800040300007d
:020000040000fa
:04007c000403000079
:020000040000fa
:040080000403000075
:020000040000fa
:040084000403000071
:020000040000fa
:04008800040300006d
:020000040000fa
:04008c000403000069
:020000040000fa
:040090000403000065
:020000040000fa
:040094000403000061
:020000040000fa
:04009800040300005d
:020000040000fa
:04009c000403000059
:020000040000fa
:0400a000a2080000b2
:020000040000fa
:0400a400420900000d
:020000040000fa
:0400a800040300004d
:020000040000fa
:0400ac000403000049
:020000040000fa
:0400b0000403000045
:020000040000fa
:0400b4000403000041
:020000040000fa
:0400b800040300003d
:020000040000fa
:0400bc000403000039
:020000040000fa
:0400c0000403000035
:020000040000fa
:0400c4000403000031
:020000040000fa
:0400c800040300002d
:020000040000fa
:0400cc000403000029
:020000040000fa
:0400d0000403000025
:020000040000fa
:0400d4000403000021
:020000040000fa
:0400d800040300001d
:020000040000fa
:0400dc000403000019
:020000040000fa
:0400e0000403000015
:020000040000fa
:0400e4000403000011
:020000040000fa
:0400e800040300000d
:020000040000fa
:0400ec000403000009
:020000040000fa
:0400f0000403000005
:020000040000fa
:0400f4000403000001
:020000040000fa
:0400f80004030000fd
:020000040000fa
:0400fc0004030000f9
:020000040000fa
:0401000004030000f4
:020000040000fa
:0401040004030000f0
:020000040000fa
:0401080004030000ec
:020000040000fa
:04010c0004030000e8
:020000040000fa
:04011000f0090000f2
:020000040000fa
:0401140004030000e0
:020000040000fa
:0401180004030000dc
:020000040000fa
:04011c0004030000d8
:020000040000fa
:0401200004030000d4
:020000040000fa
:0401240004030000d0
:020000040000fa
:0401280004030000cc
:020000040000fa
:04012c0004030000c8
:020000040000fa
:0401300004030000c4
:020000040000fa
:0401340004030000c0
:020000040000fa
:0401380004030000bc
:020000040000fa
:04013c0004030000b8
:020000040000fa
:0401400004030000b4
:020000040000fa
:0401440004030000b0
:020000040000fa
:0401480004030000ac
:020000040000fa
:04014c0004030000a8
:020000040000fa
:0401500004030000a4
:020000040000fa
:0401540004030000a0
:020000040000fa
:04015800040300009c
:020000040000fa
:04015c000403000098
:020000040000fa
:040160000403000094
:020000040000fa
:040164000403000090
:020000040000fa
:04016800040300008c
:020000040000fa
:04016c000403000088
:020000040000fa
:04017000c4080000bf
:020000040000fa
:040174007c09000002
:020000040000fa
:04017800040300007c
:020000040000fa
:04017c000403000078
:020000040000fa
:040180000403000074
:020000040000fa
:040184000403000070
:020000040000fa
:04018800e608000085
:020000040000fa
:04018c00b6090000b0
:020000040000fa
:040190000403000064
:020000040000fa
:040194000403000060
:020000040000fa
:04019800040300005c
:020000040000fa
:04019c000403000058
:020000040000fa
:0401a0000403000054
:020000040000fa
:0401a4000403000050
:020000040000fa
:0401a800040300004c
:020000040000fa
:0401ac000403000048
:020000040000fa
:0401b0000403000044
:020000040000fa
:0401b4000403000040
:020000040000fa
:0401b800040300003c
:020000040000fa
:0401bc000403000038
:020000040000fa
:0401c0000403000034
:020000040000fa
:0401c4000403000030
:020000040000fa
:0401c800040300002c
:020000040000fa
:0401cc000403000028
:020000040000fa
:0401d0000403000024
:020000040000fa
:0401d4000403000020
:020000040000fa
:0401d800040300001c
:020000040000fa
:0401dc000403000018
:020000040000fa
:0401e0000403000014
:020000040000fa
:0401e4000403000010
:020000040000fa
:0401e800040300000c
:020000040000fa
:0401ec000403000008
:020000040000fa
:0401f0000403000004
:020000040000fa
:0401f4000403000000
:020000040000fa
:0401f80004030000fc
:020000040000fa
:0401fc0004030000f8
:020000040000fa
:0402080004030000eb
:020000040000fa
:04020c0004030000e7
:020000040000fa
:0402100004030000e3
:020000040000fa
:0402140004030000df
:020000040000fa
:0402180004030000db
:020000040000fa
:04021c0004030000d7
:020000040000fa
:0402200004030000d3
:020000040000fa
:0402240004030000cf
:020000040000fa
:0402280004030000cb
:020000040000fa
:04022c0004030000c7
:020000040000fa
:0402300004030000c3
:020000040000fa
:0402340004030000bf
:020000040000fa
:0402380004030000bb
:020000040000fa
:04023c0004030000b7
:020000040000fa
:0402400004030000b3
:020000040000fa
:0402440004030000af
:020000040000fa
:0402480004030000ab
:020000040000fa
:04024c0004030000a7
:020000040000fa
:0402500004030000a3
:020000040000fa
:04025400040300009f
:020000040000fa
:04025800040300009b
:020000040000fa
:04025c000403000097
:020000040000fa
:040260000403000093
:020000040000fa
:04026400040300008f
:020000040000fa
:04026800040300008b
:020000040000fa
:04026c000403000087
:020000040000fa
:040270000403000083
:020000040000fa
:04027400040300007f
:020000040000fa
:04027800040300007b
:020000040000fa
:04027c000403000077
:020000040000fa
:040280000403000073
:020000040000fa
:04028400040300006f
:020000040000fa
:04028800040300006b
:020000040000fa
:04028c000403000067
:020000040000fa
:040290000403000063
:020000040000fa
:04029400040300005f
:020000040000fa
:04029800040300005b
:020000040000fa
:04029c000403000057
:020000040000fa
:0402a0000403000053
:020000040000fa
:0402a400040300004f
:020000040000fa
:0402a800040300004b
:020000040000fa
:0402ac000403000047
:020000040000fa
:0402b0000403000043
:020000040000fa
:0402b400040300003f
:020000040000fa
:0402b800040300003b
:020000040000fa
:0402bc000403000037
:020000040000fa
:0402c0000403000033
:020000040000fa
:0402c400040300002f
:020000040000fa
:0402c800040300002b
:020000040000fa
:0402cc000403000027
:020000040000fa
:0402d0000403000023
:020000040000fa
:0402d400040300001f
:020000040000fa
:0402d800040300001b
:020000040000fa
:0402dc000403000017
:020000040000fa
:0402e0000403000013
:020000040000fa
:0402e400040300000f
:020000040000fa
:0402e800040300000b
:020000040000fa
:0402ec000403000007
:020000040000fa
:0402f0000403000003
:020000040000fa
:0402f40004030000ff
:020000040000fa
:0402f80004030000fb
:020000040000fa
:0402fc0004030000f7
:020000040000fa
:0403000004030000f2
:020000040000fa
:0403040004030000ee
:020000040000fa
:0403080004030000ea
:020000040000fa
:04030c0004030000e6
:020000040000fa
:0403100004030000e2
:020000040000fa
:0403140004030000de
:020000040000fa
:0403180004030000da
:020000040000fa
:04031c0004030000d6
:020000040000fa
:0403200004030000d2
:020000040000fa
:0403240004030000ce
:020000040000fa
:0403280004030000ca
:020000040000fa
:04032c0004030000c6
:020000040000fa
:0403300004030000c2
:020000040000fa
:0403340004030000be
:020000040000fa
:0403380004030000ba
:020000040000fa
:04033c0004030000b6
:020000040000fa
:0403400004030000b2
:020000040000fa
:0403440004030000ae
:020000040000fa
:0403480004030000aa
:020000040000fa
:04034c0004030000a6
:020000040000fa
:0403500004030000a2
:020000040000fa
:04035400040300009e
:020000040000fa
:04035800040300009a
:020000040000fa
:04035c000403000096
:020000040000fa
:040360000403000092
:020000040000fa
:04036400040300008e
:020000040000fa
:04036800040300008a
:020000040000fa
:04036c000403000086
:020000040000fa
:040370000403000082
:020000040000fa
:04037400040300007e
:020000040000fa
:04037800040300007a
:020000040000fa
:04037c000403000076
:020000040000fa
:040380000403000072
:020000040000fa
:04038400040300006e
:020000040000fa
:04038800040300006a
:020000040000fa
:04038c000403000066
:020000040000fa
:040390000403000062
:020000040000fa
:04039400040300005e
:020000040000fa
:04039800040300005a
:020000040000fa
:04039c000403000056
:020000040000fa
:0403a0000403000052
:020000040000fa
:0403a400040300004e
:020000040000fa
:0403a800040300004a
:020000040000fa
:0403ac000403000046
:020000040000fa
:0403b0000403000042
:020000040000fa
:0403b400040300003e
:020000040000fa
:0403b800040300003a
:020000040000fa
:0403bc000403000036
:020000040000fa
:0403c0000403000032
:020000040000fa
:0403c400040300002e
:020000040000fa
:0403c800040300002a
:020000040000fa
:0403cc000403000026
:020000040000fa
:0403d0000403000022
:020000040000fa
:0403d400040300001e
:020000040000fa
:0403d800040300001a
:020000040000fa
:0403dc000403000016
:020000040000fa
:0403e0000403000012
:020000040000fa
:0403e400040300000e
:020000040000fa
:0403e800040300000a
:020000040000fa
:0403ec000403000006
:020000040000fa
:0403f0000403000002
:020000040000fa
:0403f40004030000fe
:020000040000fa
:0403f80004030000fa
:020000040000fa
:0403fc0004030000f6
:020000040000fa
:10040000ef7622000e7f22000e018800000000001f
:10041000000020000000e000020032000001200087
:100420002002880014000700790007000000e000a7
:1004300003003a0060b620000100200002003700ef
:100440000000200001002000810f70000100320038
:1004500014000700000020000000e000020032004d
:1004600000000200000000008407020000000000fd
:100470000040da000000fe004440a90020002000f7
:100480000000e0000300320010002000900188000e
:100490004440a800000006008a1f78008b1f7800e7
:1004a00000000600a1028800800478000000eb0034
:1004b0001f003700e284440054a0b4009905ba003c
:1004c000e284440054a0b4009906ba00e2844400d7
:1004d00054a0b4000006eb00476fde00fd07b20039
:1004e000ae018800636ce10003003a00eaff0700f8
:1004f0000000eb000e003700606ce10008003a00dd
:10050000004deb000a05e800020039003420ec0041
:100510000af0a0008b05e900f9ff3e000400370057
:100520006168e100010032000086eb000b0007006b
:1005300019c7ba001905ba000e04e00003003a001a
:100540000a00e000dbff3a0000000600fe07b200f0
:10055000ae0288008a047800f5ff37000cd0a300b3
:10056000e20f4d001c00390089027800354dba00b9
:100570000a05e800020039003420ec000af0a0006f
:100580008b05e9000f003200254dba000a05e8008e
:10059000020039003420ec000af0a0008b05e900cd
:1005a000080032000c00e0000600320015cdba0051
:1005b0000a05e800020039003420ec000af0a0002f
:1005c0008b05e9008984e80054a0b4000b00e0002a
:1005d000e2ff3a00000006009902ba00055d7800cb
:1005e0008b05e900f7ff3200c82ade00055d7800c0
:1005f0008b05e900f3ff32000c00e000f1ff320050
:1006000019ddba00eeff37000040da000000fe00fe
:0406100000000500e1
:020000040000fa
:100614000400fa00204798002e409000e74f500055
:1006240029003e002e4090000080fb008000400026
:10063400e074220000804000100f78002e409000eb
:100644000080fb0080004000e07522000080400034
:10065400100078009e0f500002003a000000eb00ea
:100664001a0037002e4090000080fb0080004000fc
:10067400e075220000804000100078009e0f5000ba
:10068400080036002e4090000080fb0080004000ef
:10069400e075220000804000100078001e00500029
:1006a4000a0037002e4090000080fb0080004000cc
:1006b400e075220000804000100078001e00500009
:1006c400803eb000010037000000eb000080fa001b
:1006d400000006000400fa00204798000040eb00e8
:1006e400004f78002e409000e74f500037003e0046
:1006f4002e4090000080fb0080004000e074220047
:1007040000804000900078002e4090000080fb00a4
:1007140000014000e0752200000041001000780054
:10072400808f5000290032002e4090008080fb0012
:100734002e4090000080fb0000014000e074220085
:100744000000410010017800803e20000088b900bc
:100754000000780002004000e1802000614f780032
:100764002e4090000080fb0000014000e174220054
:1007740081004100910078008100e8000001400000
:10078400e074220000004100010878002e4090002f
:100794000080fb0080004000e074220000804000e4
:1007a40090007800803e2000808f500007003a00bf
:1007b4002e4090000080fb0080004000e074220086
:1007c400008040008000eb00010878001e407800a3
:1007d4000080fa00000006000600fa004047980076
:1007e400514798000040eb00004f78004e409000c5
:1007f400e74f500030003e004e4090000080fb0068
:1008040080004000e0752200008040001000780065
:100814000000e800100798009e009000803e200031
:10082400808f500002003a000000eb00100798008f
:100834004e4090000080fb0080004000e0742200e5
:1008440000804000900078001e009000808f5000cf
:10085400190032004e4090008080fb004e40900012
:100864000080fb0000014000e07522000000410010
:1008740090017800e2802000803e20000088b900ca
:10088400000078000300400000004100de409000ba
:10089400014878004e4090000080fb00800040003a
:1008a400e0752200008040009e009000010878005e
:1008b40010c0b300004f78001e4078000080fa009a
:1008c400000006000a00fa000040eb00004f780028
:1008d400510c8000f0ff200000806000500c880064
:1008e4001c0037001e80fb00000040000000470091
:1008f4000080e80071062000010878001e80fb00db
:10090400000040008e80e8000080400090007800e5
:1009140010342000808f500007003e001e80fb0032
:10092400000040008e80e800008040001000780045
:10093400e70f500006003e001e80fb000000400050
:10094400000047000080e8007106200001087800dc
:100954001e4fe8001e407800e34f5000e1ff3600d0
:10096400111f800000fc2f00008060003000b300e5
:10097400101f8800811d800000fc2f000080600093
:100984000020a000801d88001e00900040288800e0
:100994000225ef000025ef0001e5a8000345a800ab
:1009a4009560a8009580a800111f8000f00f2c000e
:1009b400808060000050200001007000101f88003b
:1009c400911d800000fc2f00008060005000b300e7
:1009d400901d88002e009000f02888001825ef0054
:1009e4001625ef0017e5a8001945a80097c0a80030
:1009f40097e0a800211f800000fc2f000080600009
:100a04003001b300201f8800711d8000f00f2c00fe
:100a1400808060000060200001007000701d88006c
:100a24003e009000a02988002e25ef002c25ef0021
:100a34002de5a8002f45a8009e40a8009e60a800b0
:100a4400211f8000f00f2c008080600000502100e6
:100a540001007000201f8800111e800000fc2f0080
:100a6400008060007000b300101e88004e009000eb
:100a7400002a88003a25ef003825ef0039e5a80060
:100a84003b45a8009f00a8009f20a8000080fa0012
:100a9400000006000000fa003028800000407800c2
:100aa400804078000040eb004bff070008c8bf00ff
:100ab4000004a00008e8b70010c0b3000080fa00ea
:100ac400000006000000fa00e028800000407800e2
:100ad4008040780010c0b3003fff070008c8bf0083
:100ae4000014a00008e8b70010c0b3000080fa00aa
:100af400000006000000fa00902980000040780001
:100b04008040780020c0b30033ff070008c8bf004e
:100b14000024a00008e8b70010c0b3000080fa0069
:100b2400000006000000fa00f02980000040780070
:100b34008040780030c0b30027ff070008c8bf001a
:100b44000034a00008e8b70010c0b3000080fa0029
:100b5400000006000400fa0020479800314798007e
:100b64002e409000e34f500066003e003e4090004f
:100b7400e94f500065003e003e4090000004e00054
:100b840003003a0010342000000f780035003700cd
:100b94003e409000e14f500003003a00001a20004c
:100ba400000f78002f0037003e409000e24f5000c5
:100bb40003003a00000d2000000f780029003700e0
:100bc4003e409000e34f500003003a0070062000be
:100bd400000f7800230037003e409000e44f50009f
:100be40003003a0030032000000f78001d00370096
:100bf4003e409000e54f500003003a009001200071
:100c0400000f7800170037003e409000e64f500078
:100c140003003a0010012000000f78001100370093
:100c24003e409000e74f500003003a00800020004f
:100c3400000f78000b0037003e409000e84f500052
:100c440003003a00f0012000000f7800050037008f
:100c54003e409000e94f50002e003a00f000200082
:100c6400000f78002e4090000004e00007003a00d6
:100c740001e5a9000345a9009e00780041288800e9
:100c840001e5a8000345a800230037002e4090008a
:100c9400e14f500007003a0017e5a9001945a900e3
:100ca4009e007800f128880017e5a8001945a800df
:100cb400190037002e409000e24f500007003a0020
:100cc4002de5a9002f45a9009e007800a1298800e0
:100cd4002de5a8002f45a8000f0037002e409000f6
:100ce400e34f50000c003a0039e5a9003b45a90048
:100cf4009e007800012a880039e5a8003b45a80039
:100d04000500370000000000030037000000000069
:100d140001003700000000000080fa000000060017
:100d24000000fa00500c80000090a100500c8800d4
:100d340001e3a900a11d8000f00f2c008080600059
:100d440000b0200001007000a01d8800a11d8000db
:100d540000fc2f0000806000a000b300a01d8800ec
:100d6400b11d800000fc2f00008060000030a00056
:100d7400b01d8800f11e8000f00f2c008080600000
:100d84000070200001007000f01e88000c23ef00aa
:100d94000e23ef008b40a9009b40a80001068000b1
:100da4000070200001007000000688000018200078
:100db4000018880000002300101888000423ef00a6
:100dc40010002000a018880080002000401888002f
:100dd4000a23ef0001e3a8000080fa0000000600e7
:100de4000000fa00500c80000020a100500c880084
:100df400c11e800000fc2f0000806000d000b30002
:100e0400c01e8800c0002000801388007222ef00fa
:100e14007422ef005000200070138800f00f2000af
:100e2400c012880000022800e01288000080fa0046
:100e3400000006000200fa00004f78001e80fb004c
:100e4400e30f50001a003200e30f500005003c008d
:100e5400e10f500008003200e20f50000d00320094
:100e640026003700e40f500018003200e50f500050
:100e74001d003200210037000225ef000025ef009d
:100e840001e5a8000345a8009560a8009580a80086
:100e94001a0037001825ef001625ef0017e5a80003
:100ea4001945a80097c0a80097e0a80013003700d0
:100eb4002e25ef002c25ef002de5a8002f45a800d6
:100ec4009e40a8009e60a8000c0037003a25ef0061
:100ed4003825ef0039e5a8003b45a8009f00a8008d
:100ee4009f20a800050037000823ef000a23ef0025
:100ef4000968ef008aff0700000000000080fa0084
:100f0400000006000200fa0011088000f08f2f0094
:100f140000806000100888009221ef00b0ff0700f5
:100f2400240a070067fe07007dff0700a0002000d9
:100f34009013880001003700000000009013800027
:100f4400ea0f500003003600901380000000e9000f
:100f54009013880040c0b300adfd07000000e0001e
:100f64000c00320008c8bf000080fb007000600065
:100f74000000e00007003a0008c8bf000044a000d9
:100f840008e8b70040c0b300d2fd07000080fb00b2
:100f94002028880050c0b3009dfd07000000e00039
:100fa4000d00320008c8bf008080fb000002200052
:100fb400008060000000e00007003a0008c8bf009d
:100fc4000054a00008e8b70050c0b300c1fd0700fa
:100fd4000080fb00d028880060c0b3008cfd0700af
:100fe4000000e0000d00320008c8bf008080fb0054
:100ff40000042000008060000000e00007003a00c8
:1010040008c8bf000064a00008e8b70060c0b300cf
:10101400b0fd07000080fb008029880070c0b30089
:101024007bfd07000000e0000c00320008c8bf0090
:101034000004e00009003500818020009140780020
:1010440000c8b30000c0700008e8b70070c0b30067
:10105400a0fd07000080fb00e02988001028800024
:101064006e0060000000e0000400320030288000c0
:10107400004f780010c0b3006eff0700c028800046
:101084006e0060000000e00004003200e0288000f0
:10109400004f780020c0b30066ff0700702980006d
:1010a4006e0060000000e00004003200902980001f
:1010b400004f780030c0b3005eff0700d0298000e5
:1010c4006e0060000000e00004003200f02980009f
:1010d400004f780040c0b30056ff0700411880005d
:1010e40000142100008060000000e00092ff320044
:1010f40050c0b3004fff070090ff37003600f800e0
:10110400809fbe00829fbe00849fbe00869fbe005b
:101114000000fa0000042000901388005dfe070020
:101124008560a9000080fa004f03be004f02be0094
:101134004f01be004f00be003600f900004006001b
:101144003600f800809fbe00829fbe00849fbe00d0
:10115400869fbe000000fa0000042000901388005f
:1011640058fe070087c0a9000080fa004f03be00a4
:101174004f02be004f01be004f00be003600f90012
:10118400004006003600f800809fbe00829fbe002b
:10119400849fbe00869fbe000000fa000004200069
:1011a4009013880053fe07008e40a9000080fa00c7
:1011b4004f03be004f02be004f01be004f00be00f1
:1011c4003600f900004006003600f800809fbe009b
:1011d400829fbe00849fbe00869fbe000000fa006e
:1011e40000042000901388004efe07008f00a90021
:1011f4000080fa004f03be004f02be004f01be0044
:101204004f00be003600f900004006003600f8002a
:10121400809fbe00829fbe00849fbe00869fbe004a
:101224000200fa00000420009013880040c0b300bc
:10123400f7fc07000000e0000600320040c0b300e5
:1012440024fd0700004f78001e80fb002028880042
:101254000300370008c8bf000044a10008e8b70035
:101264008580a9000080fa004f03be004f02be0033
:101274004f01be004f00be003600f90000400600da
:101284003600f800809fbe00829fbe00849fbe008f
:10129400869fbe000200fa0000042000901388001c
:1012a40050c0b300dafc07000000e0000600320082
:1012b40050c0b30007fd0700004f78001e80fb00fc
:1012c400d02888000300370008c8bf000054a100dc
:1012d40008e8b70087e0a9000080fa004f03be00c9
:1012e4004f02be004f01be004f00be003600f900a1
:1012f400004006003600f800809fbe00829fbe00ba
:10130400849fbe00869fbe000200fa0000042000f5
:101314009013880060c0b300bdfc07000000e0002b
:101324000600320060c0b300eafc0700004f7800fa
:101334001e80fb00802988000300370008c8bf0016
:101344000064a10008e8b7008e60a9000080fa00dc
:101354004f03be004f02be004f01be004f00be004f
:101364003600f900004006003600f800809fbe00f9
:10137400829fbe00849fbe00869fbe000200fa00ca
:10138400000420009013880070c0b300a0fc070084
:101394000000e0000600320070c0b300cdfc07007e
:1013a400004f78001e80fb00e0298800030037000e
:1013b40008c8bf000074a10008e8b7008f20a90086
:1013c4000080fa004f03be004f02be004f01be0072
:1013d4004f00be003600f900004006003600f80059
:1013e400809fbe00829fbe00849fbe00869fbe0079
:1013f4000400fa0060188000104798009e40900096
:10140400014f7800800c20009013880009c8bf00a9
:101414000080fb00e20f50006a003200e20f50002f
:1014240005003c000000e0000a003200e10f50001b
:101434005100320095003700e50f50007b00320068
:10144400e60f50008c003200e40f500064003200bc
:101454008e0037009e40900000cfb30000c06000b3
:101464000ae8b7001e409000634060000be8b70034
:101474000ac8bf000080fb0001032000810f500058
:101484001f00320001032000810f500006003c00c1
:10149400f00f50000b00320001022000810f5000b9
:1014a400270032002f00370001042000810f500074
:1014b4002600320001082000810f5000260032006f
:1014c4002800370070c0b30009e8b7000bc8bf009c
:1014d4004ffc0700100798009e009000f00f2000ba
:1014e400808f50000300360000c0eb00004f7800ee
:1014f400020037001e009000004f78001d003700e6
:1015040070c0b30009e8b7000bc8bf0064404000d6
:101514003ffc0700100798009e009000f00f200089
:10152400808f50000300360000c0eb00004f7800ad
:10153400020037001e009000004f78000d003700b5
:1015440010c0b30009e8b7000a00370020c0b30098
:1015540009e8b7000700370060c0b30009e8b70026
:10156400040037000968ef0000c0eb00004f78006a
:10157400000000004a0037009e409000c280200016
:10158400014978000bc8bf0052fc0700004f7800e7
:1015940010c0b3000de8b700d1802000914078005e
:1015a4000cc8bf0080cf500003003a0070c0b300e5
:1015b40009e8b7003a00370040c0b30009e8b700b3
:1015c400370037009e409000c28020000149780017
:1015d4000d68ef0050c0b30009e8b70030003700d1
:1015e400d1802000914078000cc8bf0080cf50000b
:1015f400060031000bc8bf0036fc0700004f78001e
:101604000dc8bf000040e8000de8b700d1802000fd
:10161400914078000cc8bf0080cf50001d003a00f4
:1016240070c0b30009e8b7001d003700d180200066
:10163400914078000cc8bf0080cf500007003100f3
:101644000bc8bf00644040009e40900062fc07004d
:101654000dc8bf000040e8000de8b700d1802000ad
:10166400914078000cc8bf0080cf50000b003a00b6
:101674000968ef000a0037000bc8bf009e409000c5
:1016840034fd07000968ef00050037000968ef0022
:1016940003003700000000000100370000000000d4
:1016a4001e80fb00601888008b40a9000080fa00af
:1016b4004f03be004f02be004f01be004f00be00ec
:0816c4003600f90000400600a9
:020000040000fa
:1016cc000e080000601f00008000000008080000e9
:1016dc000600000080000000000800000800000068
:0816ec00800000000000000076
:020000040000fa
:103000000c00fa00204f98002e4890000080fb0032
:103010004900dd000004b000cf80de00008fbe005c
:10302000a0028000404798009e0078003107980079
:1030300000002000f10720001e01be0002027800ff
:10304000030178008001780001007800030262002b
:10305000000061008000eb00c000dd0000002000e7
:103060000001be006120b800000171008181710083
:103070004018de000100200000007800a002880057
:103080003e0090008000eb000108bb0011028000b0
:103090004107980011028000000e2000010070001e
:1030a0001002880020042400003b88005005200006
:1030b000303b8800a00a2000303b880061e7a80070
:1030c0000000000000000000ce0090001102880007
:1030d00000000000003b80000000e000fdff350024
:1030e0004e4090000080fb00a00288000080fa00a3
:1030f000000006000e00fa00404f9800514f980063
:103100004e4890000080fb00c800dd005e48900043
:103110000080fb00008040000002b0000000400082
:10312000cf80de00008fbe00a002800040479800e4
:103130009e0078003107980000002000f107200071
:103140001e01be00020278000301780080017800b1
:103150000100780003026200000061008000eb00c3
:10316000c000dd00000020000001be006120b800aa
:1031700000017100818171004018de000100200013
:1031800000007800a00288003e0090001080ba0085
:103190008000eb0040079800510798004e00900017
:1031a000de009000c000dd00000020004007980015
:1031b000510798003e0090001000ba006101b8006d
:1031c000f0ff2f00010020000202780003017800c8
:1031d00080017800010078000302620000006100b5
:1031e0008000eb00c000dd00000020000001be00f8
:1031f0006120b80000017100818171004e009000d3
:10320000de0090000200700083807000400798008c
:10321000510798004e4090000080fb00a0028800fb
:103220004e009000de0090000080fa0000000600d2
:103230001000fa00204f9800314f9800424f98003c
:10324000730798002e4890000080fb00c800dd0046
:103250003e4890000080fb00008040000002b0006b
:1032600000004000cf80de00008fbe00a002800082
:10327000404798009e007800310798000000200029
:10328000f10720001e01be00020278000301780051
:1032900080017800010078000302620000006100f4
:1032a0008000eb00c000dd00000020000001be0037
:1032b0006120b80000017100818171004018de00ba
:1032c0000100200000007800a00288003e0090006d
:1032d000fe0090000108bb004e4890008080fb007b
:1032e0003e0090000188bb00110280004107980059
:1032f00011028000000e2000010070001002880002
:1033000030002400003b880050052000303b88003e
:10331000a00a2000303b880061e7a8000000000000
:1033200000000000ce0090001102880000000000a4
:10333000003b80000000e000fdff35004e409000a3
:103340000080fb00a00288000080fa000000060058
:103350000a00fa00004f98000e4890000080fb0021
:1033600061006000004078000004e0002c003200a2
:103370000e4890000080fb000000d1000040780063
:103380000080fb0000004000000f780010c0b30078
:1033900020479800110037001e0078000040780098
:1033a0008040eb0053ff070020079800310798008a
:1033b0002e009000be0090004008de0001002000ba
:1033c000e00f5000e08f580002003a001e0fe800a6
:1033d000020037000040eb00204798000e489000a4
:1033e0000080fb009e0f5000030036002e4090002e
:1033f0000004e000e8ff3a002e4090000004e000e6
:10340000100032000e4890000080fb000000d10048
:103410000040780000404000f9fe07000900370036
:103420008040eb000e48900032ff0700000f78004c
:103430009e0178000041eb008040eb000e489000b8
:103440007bff07000080fa00000006000a00fa0077
:10345000004f98000040eb00004f780021408000b2
:10346000000d2d00808f500002003200d2000700b6
:10347000004f78000080eb00300798001e40780075
:103480000004e00047003a0006c8bf000040e90021
:1034900010479800f0ff2f00f10f20001007980050
:1034a000210798002300370000c8bf009e4090000d
:1034b00010ff070010079800210798001e009000d9
:1034c000ae0090004009de0003002000f00f200055
:1034d00001002000020278000301780080017800da
:1034e0000100780003026200000061008000eb0030
:1034f000c000dd00000020000001be006120b80017
:1035000000017100818171000e4890000080fb0075
:103510008000eb00800f5100818f590002003a00bb
:103520009e009000310798001e4090000040e90086
:10353000104798001e4090000004e000190032007f
:103540001e009000ae0090004009de000300200045
:10355000f00f200001002000020278000301780033
:103560008001780001007800030262000000610021
:103570008000eb00c000dd00000020000001be0064
:103580006120b80000017100818171000e48900037
:103590000080fb008000eb00800f5100818f5900fc
:1035a000c1ff3a003e0090000080fa0000000600d3
:1035b0000200fa000040eb00004f780003003700e3
:1035c0001e4078008efe07001ecfe8001e407800e7
:1035d000e74f5000faff36000080fa0000000600b6
:1035e0000800fa0040479800310798000040eb00bf
:1035f000004f78000000eb00100798002140800089
:10360000000d2d00808f5000020032006a0007007c
:10361000004f78000040eb00104798001e407800f3
:103620000004e00018003a004e409000e44f4000d3
:1036300015003e004e40900084ff070010079800e0
:103640009e0090003e009000808f500012003200db
:10365000618020009140780000c8bf00be0190004a
:103660004e419000f2fe070006c8bf000040e8008f
:1036700006e8b70006c8bf00e34f4000050036006b
:10368000080007000400370000c0eb001047980056
:1036900001003700000000001e4090000080fa008a
:1036a000000006000800fa000040eb0030479800d8
:1036b0000040eb00004f78000040eb0040479800ce
:1036c0000040eb00104798000040eb0020479800b6
:1036d00001802000914078003147980062802000ee
:1036e00012417800424798003e409000004fe800a9
:1036f00010c0b300104798001e407800e74f5000fc
:10370000020036000040eb00004f78000040eb0064
:1037100020479800110037002e4090004bff070013
:10372000300798003e009000e10f40000800320092
:10373000be0190002e4190009e4090001e407800f7
:10374000bbfe07001e4090000040e80010479800b4
:103750002e4090000040e800204798002e40900046
:10376000e44f4000ecff3600104080000000e8000d
:103770008001780002cfb3008040eb001e4078004b
:10378000abfe07003e409000f1fe07001e417800ae
:1037900001802000824878001e4190006180200056
:1037a00082487800104080000000e8001040880047
:1037b0000080fa00000006000800fa000040eb005c
:1037c000004f78000068ef000040eb0010479800c1
:1037d000010037000000000000c8bf008040eb007f
:1037e00044fe070010079800210798001e01900072
:1037f000ae019000f0ff2f00f10f200002027800d0
:103800000301780080017800010078000302620063
:10381000000061008000eb00c000dd00000020001f
:103820000001be006120b8000001710081817100bb
:10383000e00f5100e08f590003003a001e40900055
:103840000040e800104798001e019000ae01900073
:10385000f0ff2f00f10f2000800f5100818f5900e1
:10386000070032001e009000ae0090004008de000d
:1038700001002000e00f5000e08f580004003a00e3
:1038800000c8bf000040e80000e8b70002003700b1
:103890001e0090001040880000c8bf00e74f500095
:1038a00010003e001e019000ae019000f0ff2f00be
:1038b000f10f2000800f5100818f59000700320066
:1038c0001e009000ae0090004008de0001002000c5
:1038d000e00f5000e08f580002003a001000200076
:1038e000010037000000eb000000e000b9ff3a00e3
:1038f0001e409000e84f50000b003a002cff0700dc
:103900000068ef0010002000104088001140800087
:1039100000c8bf008101780002cfb3008040eb00f7
:1039200043fe07003700370000c8bf00e74f5000d4
:103930002b003e0000c8bf000004e0000e003a006b
:103940008040eb0070c0b300eafd0700100798004c
:10395000210798001e019000ae019000f0ff2f009b
:10396000f10f2000800f5100818f590002003200ba
:1039700070c0b300a2fd070000c8bf00e54f5000b3
:1039800020003e0000c8bf000040e8008040eb007f
:10399000d8fd070010079800210798001e0090002e
:1039a000ae0090004009de0003002000000f200060
:1039b00001002000800f5100818f590011003a0052
:1039c00000c8bf008efd070000c8bf000040e8002f
:1039d00000e8b7001e009000104088000900370082
:1039e0000068ef00100020001040880011408000a7
:1039f00000c8bf008101780002cfb3008040eb0017
:103a00000bfe070010c0b300004f78000100370024
:103a10000000000000c8bf009e407800b5fd070010
:103a200010079800210798001e019000ae01900039
:103a3000f0ff2f00f10f2000800f5100818f5900ff
:103a4000010032001e4fe8001e407800e44f4000a5
:103a500009003e001e019000ae019000f0ff2f0013
:103a6000f10f2000800f5100818f590002003200b9
:103a700010002000010037000000eb000000e00013
:103a8000e3ff3a00000d2d00204088001e41780021
:103a900061802000824878000040eb006047980079
:0c3aa0006e4090000080fa00000006005c
:020000040000fa
:020000040002f8
:04aff0007f7300006b
:020000040000fa
:020000040002f8
:04aff400fff6000064
:020000040000fa
:020000040002f8
:04aff8009fb1000005
:020000040000fa
:020000040002f8
:04affc003f3f0000d3
:00000001FF
