:020000040000fa
:080000000002040000000000f2
:020000040000fa
:040008005a07000093
:020000040000fa
:04000c005a0700008f
:020000040000fa
:040010005a0700008b
:020000040000fa
:040014005a07000087
:020000040000fa
:040018005a07000083
:020000040000fa
:04001c005a0700007f
:020000040000fa
:040020005a0700007b
:020000040000fa
:040024005a07000077
:020000040000fa
:040028005a07000073
:020000040000fa
:04002c005a0700006f
:020000040000fa
:040030005a0700006b
:020000040000fa
:040034005a07000067
:020000040000fa
:040038005a07000063
:020000040000fa
:04003c005a0700005f
:020000040000fa
:040040005a0700005b
:020000040000fa
:040044005a07000057
:020000040000fa
:040048005a07000053
:020000040000fa
:04004c005a0700004f
:020000040000fa
:040050005a0700004b
:020000040000fa
:0400540004030000a1
:020000040000fa
:04005800c4030000dd
:020000040000fa
:04005c005a0700003f
:020000040000fa
:040060005a0700003b
:020000040000fa
:040064005a07000037
:020000040000fa
:040068005a07000033
:020000040000fa
:04006c005a0700002f
:020000040000fa
:040070005a0700002b
:020000040000fa
:040074005a07000027
:020000040000fa
:040078005a07000023
:020000040000fa
:04007c005a0700001f
:020000040000fa
:040080005a0700001b
:020000040000fa
:040084005a07000017
:020000040000fa
:040088005a07000013
:020000040000fa
:04008c005a0700000f
:020000040000fa
:040090005a0700000b
:020000040000fa
:040094005a07000007
:020000040000fa
:040098005a07000003
:020000040000fa
:04009c005a070000ff
:020000040000fa
:0400a0003203000027
:020000040000fa
:0400a4001004000044
:020000040000fa
:0400a8005a070000f3
:020000040000fa
:0400ac005a070000ef
:020000040000fa
:0400b0005a070000eb
:020000040000fa
:0400b4005a070000e7
:020000040000fa
:0400b8005a070000e3
:020000040000fa
:0400bc005a070000df
:020000040000fa
:0400c0005a070000db
:020000040000fa
:0400c4005a070000d7
:020000040000fa
:0400c8005a070000d3
:020000040000fa
:0400cc005a070000cf
:020000040000fa
:0400d0005a070000cb
:020000040000fa
:0400d4005a070000c7
:020000040000fa
:0400d8005a070000c3
:020000040000fa
:0400dc005a070000bf
:020000040000fa
:0400e0005a070000bb
:020000040000fa
:0400e4005a070000b7
:020000040000fa
:0400e8005a070000b3
:020000040000fa
:0400ec005a070000af
:020000040000fa
:0400f0005a070000ab
:020000040000fa
:0400f4005a070000a7
:020000040000fa
:0400f8005a070000a3
:020000040000fa
:0400fc005a0700009f
:020000040000fa
:040100005a0700009a
:020000040000fa
:040104005a07000096
:020000040000fa
:040108005a07000092
:020000040000fa
:04010c005a0700008e
:020000040000fa
:04011000f4040000f3
:020000040000fa
:040114005a07000086
:020000040000fa
:040118005a07000082
:020000040000fa
:04011c005a0700007e
:020000040000fa
:040120005a0700007a
:020000040000fa
:040124005a07000076
:020000040000fa
:040128005a07000072
:020000040000fa
:04012c005a0700006e
:020000040000fa
:040130005a0700006a
:020000040000fa
:040134005a07000066
:020000040000fa
:040138005a07000062
:020000040000fa
:04013c005a0700005e
:020000040000fa
:040140005a0700005a
:020000040000fa
:040144005a07000056
:020000040000fa
:040148005a07000052
:020000040000fa
:04014c005a0700004e
:020000040000fa
:040150005a0700004a
:020000040000fa
:040154005a07000046
:020000040000fa
:040158005a07000042
:020000040000fa
:04015c005a0700003e
:020000040000fa
:040160005a0700003a
:020000040000fa
:040164005a07000036
:020000040000fa
:040168005a07000032
:020000040000fa
:04016c005a0700002e
:020000040000fa
:040170006003000028
:020000040000fa
:040174005c04000027
:020000040000fa
:040178005a07000022
:020000040000fa
:04017c005a0700001e
:020000040000fa
:040180005a0700001a
:020000040000fa
:040184005a07000016
:020000040000fa
:0401880092030000de
:020000040000fa
:04018c00a8040000c3
:020000040000fa
:040190005a0700000a
:020000040000fa
:040194005a07000006
:020000040000fa
:040198005a07000002
:020000040000fa
:04019c005a070000fe
:020000040000fa
:0401a0005a070000fa
:020000040000fa
:0401a4005a070000f6
:020000040000fa
:0401a8005a070000f2
:020000040000fa
:0401ac005a070000ee
:020000040000fa
:0401b0005a070000ea
:020000040000fa
:0401b4005a070000e6
:020000040000fa
:0401b8005a070000e2
:020000040000fa
:0401bc005a070000de
:020000040000fa
:0401c0005a070000da
:020000040000fa
:0401c4005a070000d6
:020000040000fa
:0401c8005a070000d2
:020000040000fa
:0401cc005a070000ce
:020000040000fa
:0401d0005a070000ca
:020000040000fa
:0401d4005a070000c6
:020000040000fa
:0401d8005a070000c2
:020000040000fa
:0401dc005a070000be
:020000040000fa
:0401e0005a070000ba
:020000040000fa
:0401e4005a070000b6
:020000040000fa
:0401e8005a070000b2
:020000040000fa
:0401ec005a070000ae
:020000040000fa
:0401f0005a070000aa
:020000040000fa
:0401f4005a070000a6
:020000040000fa
:0401f8005a070000a2
:020000040000fa
:0401fc005a0700009e
:020000040000fa
:040208005a07000091
:020000040000fa
:04020c005a0700008d
:020000040000fa
:040210005a07000089
:020000040000fa
:040214005a07000085
:020000040000fa
:040218005a07000081
:020000040000fa
:04021c005a0700007d
:020000040000fa
:040220005a07000079
:020000040000fa
:040224005a07000075
:020000040000fa
:040228005a07000071
:020000040000fa
:04022c005a0700006d
:020000040000fa
:040230005a07000069
:020000040000fa
:040234005a07000065
:020000040000fa
:040238005a07000061
:020000040000fa
:04023c005a0700005d
:020000040000fa
:040240005a07000059
:020000040000fa
:040244005a07000055
:020000040000fa
:040248005a07000051
:020000040000fa
:04024c005a0700004d
:020000040000fa
:040250005a07000049
:020000040000fa
:040254005a07000045
:020000040000fa
:040258005a07000041
:020000040000fa
:04025c005a0700003d
:020000040000fa
:040260005a07000039
:020000040000fa
:040264005a07000035
:020000040000fa
:040268005a07000031
:020000040000fa
:04026c005a0700002d
:020000040000fa
:040270005a07000029
:020000040000fa
:040274005a07000025
:020000040000fa
:040278005a07000021
:020000040000fa
:04027c005a0700001d
:020000040000fa
:040280005a07000019
:020000040000fa
:040284005a07000015
:020000040000fa
:040288005a07000011
:020000040000fa
:04028c005a0700000d
:020000040000fa
:040290005a07000009
:020000040000fa
:040294005a07000005
:020000040000fa
:040298005a07000001
:020000040000fa
:04029c005a070000fd
:020000040000fa
:0402a0005a070000f9
:020000040000fa
:0402a4005a070000f5
:020000040000fa
:0402a8005a070000f1
:020000040000fa
:0402ac005a070000ed
:020000040000fa
:0402b0005a070000e9
:020000040000fa
:0402b4005a070000e5
:020000040000fa
:0402b8005a070000e1
:020000040000fa
:0402bc005a070000dd
:020000040000fa
:0402c0005a070000d9
:020000040000fa
:0402c4005a070000d5
:020000040000fa
:0402c8005a070000d1
:020000040000fa
:0402cc005a070000cd
:020000040000fa
:0402d0005a070000c9
:020000040000fa
:0402d4005a070000c5
:020000040000fa
:0402d8005a070000c1
:020000040000fa
:0402dc005a070000bd
:020000040000fa
:0402e0005a070000b9
:020000040000fa
:0402e4005a070000b5
:020000040000fa
:0402e8005a070000b1
:020000040000fa
:0402ec005a070000ad
:020000040000fa
:0402f0005a070000a9
:020000040000fa
:0402f4005a070000a5
:020000040000fa
:0402f8005a070000a1
:020000040000fa
:0402fc005a0700009d
:020000040000fa
:040300005a07000098
:020000040000fa
:040304005a07000094
:020000040000fa
:040308005a07000090
:020000040000fa
:04030c005a0700008c
:020000040000fa
:040310005a07000088
:020000040000fa
:040314005a07000084
:020000040000fa
:040318005a07000080
:020000040000fa
:04031c005a0700007c
:020000040000fa
:040320005a07000078
:020000040000fa
:040324005a07000074
:020000040000fa
:040328005a07000070
:020000040000fa
:04032c005a0700006c
:020000040000fa
:040330005a07000068
:020000040000fa
:040334005a07000064
:020000040000fa
:040338005a07000060
:020000040000fa
:04033c005a0700005c
:020000040000fa
:040340005a07000058
:020000040000fa
:040344005a07000054
:020000040000fa
:040348005a07000050
:020000040000fa
:04034c005a0700004c
:020000040000fa
:040350005a07000048
:020000040000fa
:040354005a07000044
:020000040000fa
:040358005a07000040
:020000040000fa
:04035c005a0700003c
:020000040000fa
:040360005a07000038
:020000040000fa
:040364005a07000034
:020000040000fa
:040368005a07000030
:020000040000fa
:04036c005a0700002c
:020000040000fa
:040370005a07000028
:020000040000fa
:040374005a07000024
:020000040000fa
:040378005a07000020
:020000040000fa
:04037c005a0700001c
:020000040000fa
:040380005a07000018
:020000040000fa
:040384005a07000014
:020000040000fa
:040388005a07000010
:020000040000fa
:04038c005a0700000c
:020000040000fa
:040390005a07000008
:020000040000fa
:040394005a07000004
:020000040000fa
:040398005a07000000
:020000040000fa
:04039c005a070000fc
:020000040000fa
:0403a0005a070000f8
:020000040000fa
:0403a4005a070000f4
:020000040000fa
:0403a8005a070000f0
:020000040000fa
:0403ac005a070000ec
:020000040000fa
:0403b0005a070000e8
:020000040000fa
:0403b4005a070000e4
:020000040000fa
:0403b8005a070000e0
:020000040000fa
:0403bc005a070000dc
:020000040000fa
:0403c0005a070000d8
:020000040000fa
:0403c4005a070000d4
:020000040000fa
:0403c8005a070000d0
:020000040000fa
:0403cc005a070000cc
:020000040000fa
:0403d0005a070000c8
:020000040000fa
:0403d4005a070000c4
:020000040000fa
:0403d8005a070000c0
:020000040000fa
:0403dc005a070000bc
:020000040000fa
:0403e0005a070000b8
:020000040000fa
:0403e4005a070000b4
:020000040000fa
:0403e8005a070000b0
:020000040000fa
:0403ec005a070000ac
:020000040000fa
:0403f0005a070000a8
:020000040000fa
:0403f4005a070000a4
:020000040000fa
:0403f8005a070000a0
:020000040000fa
:0403fc005a0700009c
:020000040000fa
:10040000cf7622000e7f22000e018800000000003f
:10041000000020000000e000020032000001200087
:100420002002880014000700a40207000000e0007a
:1004300003003a00a0e8200001002000020037007d
:100440000000200001002000810f70000100320038
:1004500014000700000020000000e000020032004d
:100460000000020000000000220c0200000000005a
:100470000040da000000fe004440a90020002000f7
:100480000000e0000300320010002000900188000e
:100490004440a800000006008a1f78008b1f7800e7
:1004a00000000600a1028800800478000000eb0034
:1004b0001f003700e284440054a0b4009905ba003c
:1004c000e284440054a0b4009906ba00e2844400d7
:1004d00054a0b4000006eb00476fde00fd07b20039
:1004e000ae018800636ce10003003a00eaff0700f8
:1004f0000000eb000e003700606ce10008003a00dd
:10050000004deb000a05e800020039003420ec0041
:100510000af0a0008b05e900f9ff3e000400370057
:100520006168e100010032000086eb000b0007006b
:1005300019c7ba001905ba000e04e00003003a001a
:100540000a00e000dbff3a0000000600fe07b200f0
:10055000ae0288008a047800f5ff37000cd0a300b3
:10056000e20f4d001c00390089027800354dba00b9
:100570000a05e800020039003420ec000af0a0006f
:100580008b05e9000f003200254dba000a05e8008e
:10059000020039003420ec000af0a0008b05e900cd
:1005a000080032000c00e0000600320015cdba0051
:1005b0000a05e800020039003420ec000af0a0002f
:1005c0008b05e9008984e80054a0b4000b00e0002a
:1005d000e2ff3a00000006009902ba00055d7800cb
:1005e0008b05e900f7ff3200c82ade00055d7800c0
:1005f0008b05e900f3ff32000c00e000f1ff320050
:1006000019ddba00eeff3700809fbe00829fbe005a
:10061000000420009013880033288000e14080000f
:100620000100e800823e2000820f50000b003200e3
:1006300062408000800f510003003200c28220001f
:1006400003f17800e04088000008a8008560a90058
:100650004f01be004f00be00004006000000eb004e
:10066000f3ff3700809fbe00829fbe000004200081
:1006700090138800e3288000f14080000100e8002a
:10068000823e2000820f50000b003200724080003a
:10069000800f51000300320042c1200083707900b6
:1006a000f04088000028a80087c0a9004f01be00c4
:1006b0004f00be00004006000000eb00f3ff3700d3
:1006c000809fbe00829fbe0000042000901388001f
:1006d00093298000014180000100e800823e200053
:1006e000820f50000d00320082408000800f5100c8
:1006f00005003200c282200081004100027d2000fe
:1007000083707900004188000048a8008e40a9004d
:100710004f01be004f00be00004006000000eb008d
:10072000f1ff3700809fbe00829fbe0000042000c2
:1007300090138800f3298000114180000100e80037
:10074000823e2000820f50000d0032009240800057
:10075000800f510005003200c2822000810041005c
:1007600082bb200083707900104188000068a800d7
:100770008f00a9004f01be004f00be0000400600e0
:100780000000eb00f1ff3700809fbe00821f780061
:100790000004200090138800a040800021418000c8
:1007a000810f50000400320001003900813eb0008a
:1007b0008080500005003a000088a9008580a900cb
:1007c0004f0178004f00be000040060001fa2000f3
:1007d00081004000c2822000e2c078000000e800f2
:1007e000a0408800823e2000820f500007003200a7
:1007f0000180fb00202888008580a9004f01780037
:100800004f00be0000400600f0ff3700408120008e
:100810000008eb000180fb0020288800f6ff37006d
:10082000809fbe00821f7800000420009013880083
:10083000b040800031418000810f50000400320040
:1008400001003900813eb0008080500005003a0070
:1008500000a8a90087e0a9004f0178004f00be0062
:10086000004006008138210081004000c282200043
:10087000e2c078000000e800b0408800823e20001e
:10088000820f5000070032000180fb00d028880052
:1008900087e0a9004f0178004f00be00004006002d
:1008a000f0ff3700608120000008eb000180fb00b2
:1008b000d0288800f6ff3700809fbe00821f780096
:1008c0000004200090138800c04080004141800057
:1008d000810f50000400320001003900813eb00059
:1008e0008080500005003a0000c8a9008e60a90071
:1008f0004f0178004f00be00004006000177210044
:1009000081004000c2822000e2c078000000e800c0
:10091000c0408800823e2000820f50000700320055
:100920000180fb00802988008e60a9004f017800bb
:100930004f00be0000400600f0ff3700808120001d
:100940000008eb000180fb0080298800f6ff3700db
:10095000809fbe00821f7800000420009013880052
:10096000d040800051418000810f500004003200cf
:1009700001003900813eb0008080500005003a003f
:1009800000e8a9008f20a9004f0178004f00be00a9
:100990000040060081b5210081004000c282200095
:1009a000e2c078000000e800d0408800823e2000cd
:1009b000820f5000070032000180fb00e029880010
:1009c0008f20a9004f0178004f00be0000400600b4
:1009d000f0ff3700a08120000008eb000180fb0041
:1009e000e0298800f6ff37003600f800809fbe003f
:1009f000829fbe00849fbe00869fbe00889fbe006f
:100a00008a9fbe006118800001447800800c20009d
:100a10009013880002c8bf0020003a0000cfb30046
:100a200000c0600004e8b700e3c0600062802000fe
:100a300001497800f04f50002f00320002c3b3008c
:100a4000824f50009900320001c2b300814f500024
:100a5000be00320001c4b300814f5000c900320013
:100a600001c8b300814f5000ff0032000268ef0060
:100a7000f80f2000681888008b40a9004f05be00c1
:100a80004f04be004f03be004f02be004f01be0028
:100a90004f00be003600f90000400600e14f500054
:100aa00056003200e24f500097003200e44f5000f1
:100ab00082003200e54f500022003200e64f500025
:100ac000f70032000268ef000884fb006818880015
:100ad0008b40a9004f05be004f04be004f03be006f
:100ae0004f02be004f01be004f00be003600f900ad
:100af00000400600e9ff370070c0b30002e8b7000d
:100b00008180fb0081804000c080200060807800f0
:100b1000c2812000e2807800810f5000cf003200b7
:100b200001003900813eb00000805000f80f200025
:100b3000880f5000cfff3e00004478000884fb007f
:100b4000e2ff3700a18020009140780008c8bf0074
:100b500080cf50001a0031006280200012417800de
:100b600064414100e74f510012003e000281fb004a
:100b700002024100c581200065037a008601e80079
:100b8000873e2000878f5100b2003200c7802000ce
:100b9000e7037a00838f5300060032008a3e20006c
:100ba0000a95b9000a014300c68220000873790043
:100bb00083327a008140e800a4802000014a780056
:100bc00080cf5000c0ff3a000268ef000884fb00ad
:100bd000681888008b40a9004f05be004f04be0076
:100be0004f03be004f02be004f01be004f00be00cb
:100bf0003600f90000400600a8ff3700848020007e
:100c0000014a780006c8bf008040eb00e74f500063
:100c100014003e000080fb0000014000c480200062
:100c2000e4017900c1812000e10279008040eb00fd
:100c3000858f51000b003200853e20000580b900f1
:100c400000804100c1822000e14078008301e8007b
:100c50000201420003097800858f510001003a002b
:100c60000009eb0010c0b3000ae8b700804f540041
:100c70006f00320040c0b30002e8b7000184fb00ff
:100c8000681888008b40a9004f05be004f04be00c5
:100c90004f03be004f02be004f01be004f00be001a
:100ca0003600f900004006007cff370070c0b3003a
:100cb00002e8b700e4c0400091ff3700a2802000a6
:100cc0001241780008c8bf00804f51003b00390036
:100cd000824f5000560032000184fb0068188800e3
:100ce0008b40a9004f05be004f04be004f03be005d
:100cf0004f02be004f01be004f00be003600f9009b
:100d00000040060065ff370082802000014978001e
:100d10000a68ef0050c0b30002e8b7000184fb008e
:100d2000681888008b40a9004f05be004f04be0024
:100d30004f03be004f02be004f01be004f00be0079
:100d40003600f9000040060054ff370010c0b30021
:100d500002e8b7000884fb00681888008b40a900ef
:100d60004f05be004f04be004f03be004f02be0041
:100d70004f01be004f00be003600f90000400600e3
:100d800046ff370020c0b30002e8b7000884fb002c
:100d9000681888008b40a9004f05be004f04be00b4
:100da0004f03be004f02be004f01be004f00be0009
:100db0003600f9000040060038ff3700638020004d
:100dc000934178008040eb00e7cf510013003e00d4
:100dd0008381fb0003824100c6802000e6027a0086
:100de000c1812000e1037a008040eb00878f520030
:100df0000a003200873e2000079cb900888042002c
:100e0000c3822000e3c078008502e80004024300aa
:100e1000050a7800878f5200090032000241e8007d
:100e2000a4802000024a7800824f5000aaff3a00b6
:100e300070c0b30002e8b7000184fb00a7ff3700d1
:100e4000000aeb000241e800a4802000024a78007a
:100e5000f5ff37008001eb004cff37000044eb004a
:100e60000884fb0019ff370060c0b30002e8b70038
:100e70000884fb00681888008b40a9004f05be005d
:100e80004f04be004f03be004f02be004f01be0024
:100e90004f00be003600f90000400600fffe37009c
:100ea00006c8bf006a0107000268ef000884fb0063
:100eb00047ff37000040da000000fe000000050098
:020000040000fa
:100ec000804078000000eb00e7cf50000e003e00ad
:100ed0008180fb0081804000c0802000608178001c
:100ee000c0812000e08078000000eb00828f50007d
:100ef00005003200810f510004003900803e2000bf
:100f00000100400002005000000006000280500076
:100f100000000600804078000040eb00e7cf500062
:100f200013003e008180fb0001814000c48020004e
:100f3000e4017900c0812000e00279000040eb006c
:100f4000858f51000a003200853e20000588b900d7
:100f500080804100c082200060c078008301e800ea
:100f60000201420003097800858f51000100320020
:100f7000000006000009eb0000000600889fbe008c
:100f80000041eb00e74f500014003e008082fb0060
:100f900005824200c6812000e6037a008701e8004e
:100fa000803e2000808f51000f003200c080200062
:100fb00060007a000041eb00830f50000700320010
:100fc000803e200000acb90088834300c08220002e
:100fd00001f07b0003337a0012c0b30002407800b6
:100fe0004f04be00000006008001eb00c08020001e
:100ff00060007a000041eb00830f5000f0ff3a00e0
:10100000f6ff3700889fbe008a9fbe00f0ff2000d9
:101010008a21b6000040eb001d0307008005780020
:10102000e880550090332000808f5000b8003e00cb
:1010300010c0b3001603070000057800e800550053
:1010400090332000808f5000a5003e0020c0b300e8
:101050000f03070080047800e880540090332000dc
:10106000808f500092003e0030c0b300080307009c
:1010700000047800e800540090332000808f500076
:1010800043003e0000fc2f00121f80008200600021
:101090003100b300111f8800831d800083006000b1
:1010a0000120a000811d88004b2888000225ef0048
:1010b0000025ef0001e5a8000345a8009560a80001
:1010c0009580a800f10f2c00121f80008281600023
:1010d0000250200003017100121f8800931d800040
:1010e000030160005200b300921d8800fa288800b6
:1010f0001825ef001625ef0017e5a8001945a800f0
:1011000097c0a80097e0a800231f8000030160009b
:101110003201b300221f8800721d800082816000ae
:101120000260200003017100721d8800a929880057
:101130002e25ef002c25ef002de5a8002f45a80057
:101140009e40a8009e60a800231f8000838060004e
:101150000250210001017100221f8800c203b60065
:101160007000b300101e8800082a88003a25ef009e
:101170003825ef0039e5a8003b45a8009f00a800ee
:101180009f20a8004f05be004f04be0000000600cf
:10119000780620008800780030c0b300990207006c
:1011a00000fc2f00121f8000820060003100b3009d
:1011b000111f8800831d8000830060000120a000b3
:1011c000811d88004b2888000225ef000025ef00d4
:1011d00001e5a8000345a8009560a8009580a80037
:1011e000f10f2c00121f800082816000025020004d
:1011f00003017100121f8800931d8000030160002d
:101200005200b300921d8800fa2888001825ef00cc
:101210001625ef0017e5a8001945a80097c0a800fb
:1012200097e0a800231f8000030160003201b30093
:10123000221f8800721d80008281600002602000f1
:1012400003017100721d8800a92988002e25ef0076
:101250002c25ef002de5a8002f45a8009e40a800f2
:101260009e60a800231f8000838060000250210040
:1012700001017100221f8800c203b6007000b30094
:10128000101e8800082a88003a25ef003825ef0054
:1012900039e5a8003b45a8009f00a8009f20a800b2
:1012a0004f05be004f04be0000000600b8ff370027
:1012b000790620008900780020c0b30051020700a1
:1012c00030c0b3007202070000047800e800540048
:1012d00090332000808f50006aff3600acff37004b
:1012e0007a0620008a00780010c0b300450207008b
:1012f00020c0b3006602070080047800e880540034
:1013000090332000808f500057ff3600e8ff3700f1
:101310007b0620008b0078000040eb0039020700bc
:1013200010c0b3005a02070000057800e80055001d
:1013300090332000808f500044ff3600e8ff3700d4
:1013400033288000e14080000100e800823e200058
:10135000820f50000800320062408000800f510070
:1013600003003200c282200003f17800e0408800d0
:101370000008a800100005000000eb00f6ff370091
:10138000e3288000f14080000100e800823e200058
:10139000820f50000800320072408000800f510020
:1013a0000300320042c1200083707900f0408800c1
:1013b0000028a800100005000000eb00f6ff370031
:1013c00093298000014180000100e800823e200056
:1013d000820f50000a00320082408000800f5100ce
:1013e00005003200c282200081004100027d200001
:1013f00083707900004188000048a80010000500b3
:101400000000eb00f4ff3700f32980001141800059
:101410000100e800823e2000820f50000a003200e6
:1014200092408000800f510005003200c2822000ef
:101430008100410082bb2000837079001041880048
:101440000068a800100005000000eb00f4ff370062
:10145000e34f50002c003e00e9cf50002a003e0030
:10146000123420000104e00019003200021a2000aa
:10147000e1cf500016003200020d2000e2cf5000f4
:101480001300320072062000e3cf5000100032003b
:1014900032032000e4cf50000d0032009201200002
:1014a000e5cf50000a00320012012000e6cf5000c4
:1014b0000700320082002000e7cf50000400320015
:1014c000f2002000e8cf500001003a00f2012000b5
:1014d0000004e0000d003200e14f50001200320025
:1014e000e24f50001700320039e5a9003b45a90042
:1014f000022a880039e5a8003b45a8008200780050
:1015000030c0b300bf0107000000060001e5a900dc
:101510000345a9004228880001e5a8000345a8006a
:1015200082007800b701370017e5a9001945a90026
:10153000f228880017e5a8001945a8008200780065
:10154000b00137002de5a9002f45a900a229880088
:101550002de5a8002f45a80082007800a9013700da
:101560008b21a90001e3a900f20f2c00a01d80002f
:101570008000610000b0200001007000a01d880004
:1015800000fc2f00a31d800083006000a100b300b9
:10159000a11d8800b603b6000030a000b01d880071
:1015a000f01e800000016100007020000200700049
:1015b000f01e88000c23ef000e23ef008b40a900e3
:1015c0009b40a800f18f2f000306800083806000fd
:1015d0000050200001007000000688000018200064
:1015e000001888000223ef000423ef001000200001
:1015f000a018880080002000401888000a23ef000f
:1016000001e3a800000006008a41a90000fc2f00a9
:10161000d803b600d000b300c01e8800c000200070
:10162000801388007222ef007422ef005000200027
:1016300070138800f00f2000c012880000022800fc
:10164000e012880000000600889fbe008a9fbe004e
:10165000804478002bc0b300fa0f20000044eb0058
:101660000904e0000b0032009a13880000a0260055
:1016700081012000990107007222ef0000402d0037
:1016800001032000950107000844e80088cf5400ba
:10169000f5ff3e007222ef0000802400811e200032
:1016a0008e0107008b45e900ecff3a00e3cf5400c0
:1016b0005a00320007003600e4cf540043003200e5
:1016c000e5cf5400110032004f05be004f04be00ac
:1016d00000000600e1cf540046003200e2cf540083
:1016e000f9ff3a001825ef001625ef0017e5a800ce
:1016f0001945a80097c0a80097e0a8004f05be00b4
:101700004f04be0000000600f2ff37000823ef0080
:101710000a23ef000268ef008b21a90001e3a90072
:10172000f20f2c00a01d80008000610000b020009e
:1017300001007000a01d880000fc2f00a31d800088
:1017400083006000a100b300a11d8800b603b600ad
:101750000030a000b01d8800f01e80000001610074
:101760000070200002007000f01e88000c23ef00c3
:101770000e23ef008b40a9009b40a800f18f2f00a3
:10178000030680008380600000502000010070008c
:101790000006880000182000001888000223ef00cf
:1017a0000423ef0010002000a01888008000200013
:1017b000401888000a23ef0001e3a8004f05be008f
:1017c0004f04be0000000600c2ff37003a25ef00bc
:1017d0003825ef0039e5a8003b45a8009f00a80088
:1017e0009f20a8004f05be004f04be000000060069
:1017f000b8ff37000225ef000025ef0001e5a80043
:101800000345a8009560a8009580a8004f05be007c
:101810004f04be0000000600aeff37002e25ef008b
:101820002c25ef002de5a8002f45a8009e40a8001c
:101830009e60a8004f05be004f04be0000000600d9
:10184000a4ff3700889fbe008a9fbe008c9fbe0009
:10185000f98f2f0020102000108864009221ef00e3
:101860008a41a90008fc2f00c11e8000010064000d
:10187000d000b300c01e8800c00020008013880084
:101880007222ef007422ef005000200070138800d5
:10189000f00f2000c012880000022800e01288002b
:1018a000d8fd07008b21a90001e3a900f10f2c004e
:1018b000a31d80000381600000b0200002007000c2
:1018c000a01d8800a21d800002006400a000b300db
:1018d000a01d8800b31d8000030064000030a0003c
:1018e000b01d8800f01e8000808060000070200025
:1018f00001007000f01e88000c23ef000e23ef00a3
:101900008b40a9009b40a8000106800081846400f0
:101910000050200009007000000688000018200018
:10192000001888000223ef000423ef0010002000bd
:10193000a018880080002000401888000a23ef00cb
:1019400001e3a800a000200090138800c8822000b6
:101950000bfa20004d8120008a3821000d86e80016
:101960000977210090138000ea0f50000100360033
:101970007222ed00a040800021418000810f5000c4
:101980000800320001003900813eb0008080500024
:101990000400320001802000914078000148a3003b
:1019a00079003200b040800031418000810f50004a
:1019b0000800320001003900813eb00080805000f4
:1019c0000400320001802000914078000158a300fb
:1019d00060003200c040800041418000810f500013
:1019e0000800320001003900813eb00080805000c4
:1019f0000400320001802000914078000168a300bb
:101a000047003200d040800051418000810f5000db
:101a10001500320001003900813eb0008080500086
:101a20001100320001802000914078000104e000a4
:101a30000d0035000174a0000280200001497800eb
:101a400081b5210081004000e8c078000000e80076
:101a5000d0408800823e2000820f500057003200a4
:101a60000180fb00e0298800102880006e006000e3
:101a700024003a00c02880006e0060001a003a007e
:101a8000702980006e00600010003a00d0298000ac
:101a90006e00600006003a00001421000803b60042
:101aa000b0ff320050c0b300e7fe0700adff3700c3
:101ab000f029800040c0b300e3fe070000142100bd
:101ac0000803b600a7ff3200f6ff37009029800018
:101ad00030c0b300dcfe0700d02980006e0060003b
:101ae000edff3200f2ff3700e028800020c0b30095
:101af000d5fe0700702980006e006000e3ff320011
:101b0000f2ff37003028800010c0b300cefe07007f
:101b1000c02880006e006000d9ff3200f2ff37005d
:101b20000164a00002802000014978008900400083
:101b3000e8c078000000e800c0408800823e200035
:101b4000820f5000260032000180fb0080298800af
:101b5000acff37000154a00002802000014978004a
:101b60008a004000e8c078000000e800b04088002b
:101b7000823e2000820f5000150032000180fb00e1
:101b8000d028880093ff37000144a0000280200085
:101b9000014978008b004000e8c078000000e800b0
:101ba000a0408800823e2000820f500011003200c9
:101bb0000180fb00202888007aff3700a0812000e8
:101bc0000008eb000180fb00e0298800a6ff370039
:101bd000000eeb000180fb00d02888007dff37005d
:101be000808120000008eb000180fb008029880034
:101bf00084ff3700800eeb000180fb002028880066
:101c000068ff3700e34f5000010034000000060079
:101c10000000fb00026020000281b90000002a00e1
:101c2000020040005420ef000001eb000208bb005e
:101c300023042400033b88000500fc00530520001a
:101c4000333b8800a30a2000333b880061e7a800eb
:101c5000000000000000000033002400033b880067
:101c60005420ef000108bb000288bb000500fc0007
:101c700050052000303b8800a00a2000303b88003f
:101c800061e7a8000000000000000000000006005e
:101c9000804078000080eb00e3cf5000010034006a
:101ca00000000600a20280008100fb00006020000e
:101cb0000088b90003002a00808041005420ef0012
:101cc0001180ba004000dd009100ba000080700071
:0c1cd0008280fb00a102880000000600da
:020000040000fa
:101cdc00f03fb1000180b10006003500ee030900b1
:101cec0000000000403fb1000180b100fbff3d004f
:101cfc001000b000203fb000020035000080090049
:081d0c000000000000000600c9
:020000040000fa
:101d14000c080000601f00008000000000080000a4
:0c1d24000c000000800000000000000027
:020000040000fa
:020000040002f8
:04aff0007f7300006b
:020000040000fa
:020000040002f8
:04aff400fff6000064
:020000040000fa
:020000040002f8
:04aff8009fb1000005
:020000040000fa
:020000040002f8
:04affc003f3f0000d3
:00000001FF
